:100000000C94BE010C94E61C0C94DB010C94DB01F7
:100010000C94DB010C94DB010C94DB010C94DB01F0
:100020000C94DB010C94DB010C940B220C94DF226A
:100030000C94651B0C94DB010C94DB010C94DB012C
:100040000C94DB010C94DB010C94DB010C94DB01C0
:100050000C94DB010C94081C0C94DB010C94DB0168
:100060000C94DB010C94DB010C94DB010C94DB01A0
:100070000C94DB010C94DB010C94DB010C94DB0190
:100080000C94DB010C94DB010C94DB010C94DB0180
:100090000C94DB010C94DB010C94DB010C94DB0170
:1000A0000C94DB010C94DB010C94DB0114001A00AE
:1000B0000800150017001D001621072409000A007A
:1000C00004221B00060019000528000000002A4237
:1000D000437E2C43130012000C0018001C00380053
:1000E0000F310E340D000B00333237003600100094
:1000F00011380000000029432C04284314001A0082
:10010000090013000A001D0015211624170007001E
:1001100004221B00060019000528000000002A42E6
:10012000587C2C0033001C0018000F000D00380014
:100130000C31083411000B00123237003600100069
:100140000E380000000029432C0428001E021F0264
:1001500020022102220239000100520001004A005F
:100160003502500051004F004D000000000001001A
:100170004C002900270226022502240223022D0218
:1001800030022F022E024B003800A900AA00A8005E
:100190004E0000000000010031022B00350001007C
:1001A00001004E004A0039002500240023002D00E4
:1001B0002622500051002F002728000000000100D7
:1001C0004C002B003100010001004B004D003400B9
:1001D00020001F001E002E0021324F005200300070
:1001E0002238000000000100010028003A003B0016
:1001F0003C003D003E004400007C01000100010085
:100200000100407E417E010001000000000001006D
:100210000100010043004200410040003F00450052
:1002200048004700460001000100010001000100F4
:10023000007C0000000001000100010010034D00DF
:1002400069006E00690044006F00780000001C0324
:1002500054006800610074002D00430061006E00CE
:1002600061006400690061006E000000040309047D
:1002700009023B00020100A0FA0904000001030189
:100280000100092111010001224400070581030832
:10029000000109040100010300000009211101000F
:1002A00001227B00070582032000011201000200E9
:1002B000000008EDFE6030010001020001050109A7
:1002C00002A10185020901A10005091901290815EA
:1002D00000250195087501810205010930093115D4
:1002E00081257F95027508810609381581257F953E
:1002F0000175088106050C0A38021581257F9501D4
:1003000075088106C0C005010980A1018503190196
:100310002AB700150126B700950175108100C005A8
:100320000C0901A101850419012AA002150126A0CA
:1003300002950175108100C005010906A10105079C
:1003400019E029E71500250195087501810295013D
:10035000750881010507190029FF150026FF009582
:100360000675088100050819012905150025019564
:100370000575019102950175039101C011241FBEFD
:10038000CFEFDAE0DEBFCDBF11E0A0E0B1E0ECE4FA
:10039000FBE402C005900D92AA3AB107D9F722E01A
:1003A000AAEAB1E001C01D92A53AB207E1F70E94A6
:1003B00077140C9465250C94000055985D9820984E
:1003C0002898089524E043E062E00E949B08089585
:1003D0009C01FB018581882379F02034FEE73F07EB
:1003E00021F021343E4731F0089580E00E947C02E4
:1003F00080E0089581E0FACF81E008958530B8F477
:100400006830A8F4453098F450E095E0699F400DBD
:10041000511D1124FA0198E2899FE00DF11D11246C
:10042000EE0FFF1FE455FF4F85919491089581E0F1
:1004300090E008950E94FE01089581E008950E94D1
:100440001D02089581E008950E94E801089508952D
:100450000E9427020895A6E0B0E0E1E3F2E00C94E8
:10046000C12449835A839E833091B10189819A8145
:1004700031111AC03E81332399F0222389F00E9462
:100480003B08182F682F89819A810E94170869817B
:100490007A81812F0E94510F2696E3E00C94DD248F
:1004A0000E942908182FF3CF0E943B0869817A81A6
:1004B000F1CFFC01262F40815181628173818481BB
:1004C00095810E942B020895CF93DF93EC0161E0A8
:1004D0000E945902BE010E941F02DF91CF91089530
:1004E000CF93DF93EC0160E00E945902BE010E94AD
:1004F0002802DF91CF910895CF93DF93C1E0D0E040
:1005000002C0CC0FDD1F8A95E2F78C2F0E94BA0C37
:10051000CE010E943C07DF91CF91089508950E947B
:10052000EF060E948E022FEF84E39CE02150804072
:100530009040E1F700C0000008950E948F020E94E1
:100540002C1C08950E948F020E943D1C08950F9359
:100550001F93CF93DF938C0161E00E945902EC015D
:10056000B8010E942402811106C080E0DF91CF9182
:100570001F910F910895B801CE010E94DB198823C5
:10058000A1F3B801CE010E942517882371F3B801A9
:10059000CE010E944D19882341F3F80185818823FB
:1005A00061F0C330FCE7DF07E9F058F4C115ECE770
:1005B000DE07A9F0C130DC47B9F0C8010E94220271
:1005C000D5CFCB358CE7D807A9F0CC35ECE7DE07E3
:1005D00071F0CA35DC4789F70E94960CEECF0E9475
:1005E0009D02C3CF0E949E0C0E94A202BECF0E9419
:1005F0008C0CE3CF0E949A0CE0CF0E94421B0E9419
:10060000240308950E9428030E94471B089508951B
:1006100081E008950895CF93DF93D82F0E940803B7
:10062000C82F882319F08D2F0E940A038C2FDF9189
:10063000CF9108950895CF93C82F0E9407038C2F60
:100640000E940B03CF91089580E00E941B03089540
:100650000E94241A0E941B030895CF930E94241A1B
:10066000C82F8091AC018C1779F0C093AC010E9427
:10067000D11B6093AD017093AE018093AF01909355
:10068000B0018C2F0E941B03CF910895ADE0B0E024
:10069000ECE4F3E00C94C224488759876A877B878F
:1006A0008C879D8791110E94C40B1F8286E0FE01FA
:1006B0003896DE01119601900D928A95E1F78D81B1
:1006C00081110DC029813A814B815C816D817E81D0
:1006D0008F810E94F70A2D96E2E00C94DE24CE0171
:1006E00001960E9464028111EDCFF5CFFC012481B7
:1006F000213021F4808191810E946D080895662344
:1007000029F00E940E150E94E11508950E946815B7
:10071000FACFCF93C82F8823C9F08238C9F40E943A
:10072000381A81FD13C089E30E947C0B0E94FD0BE7
:100730002FEF87EE93E0215080409040E1F700C01A
:10074000000089E30E94840B0E94FD0BCF91089565
:100750008338A1F40E94381A80FDF8CF83E50E9407
:100760007C0B0E94FD0B2FEF81EE94E02150804026
:100770009040E1F700C0000083E5E4CF8438A1F4A5
:100780000E94381A82FDE2CF87E40E947C0B0E940F
:10079000FD0B2FEF81EE94E0215080409040E1F777
:1007A00000C0000087E4CECF8CEF8C0F813AB8F404
:1007B0008C2F0E9492188111C9CF6C2F809100015B
:1007C000909101010E94B01A882329F08C2F0E9479
:1007D000840B0E94FD0B8C2F0E947C0BB5CF80E216
:1007E0008C0F883048F4C77081E001C0880FCA952B
:1007F000EAF70E94A70BA8CFEBE5EC0FE33040F43B
:10080000F0E0EE59FE4F808190E00E94541A9ECF96
:10081000E8E5EC0FEB3150F4F0E0EE0FFF1FE45D84
:10082000FE4F808191810E94791A90CF83E38C0FD3
:10083000833108F08BCF61E08C2F0E947F0386CF3D
:10084000882309F456C0823879F40E94381A81FF4F
:1008500050C089E30E947C0B0E94FD0B89E30E943B
:10086000840B0E94FD0B0895833859F40E94381AB6
:1008700080FF3FC083E50E947C0B0E94FD0B83E557
:10088000EECF843859F40E94381A82FF32C087E4D0
:100890000E947C0B0E94FD0B87E4E1CF9CEF980F38
:1008A000913AE8F290E2980F983050F4877091E016
:1008B00001C0990F8A95EAF7892F0E94AD0BD1CF1D
:1008C0009BE5980F933028F490E080E00E94541A42
:1008D000089598E5980F9B3128F490E080E00E94FD
:1008E000791A089593E3980F933118F460E00E9409
:1008F0007F0308951F93CF93DF93182FEB010E947E
:100900008903209739F4812F0E942004DF91CF9131
:100910001F9108958FE99FE00197F1F700C0000053
:100920002197EFCF70E060E0893311F460E570E06B
:100930000E947A040895882321F00E94A70B0E9448
:10094000FD0B0895882321F00E94AD0B0E94FD0B42
:100950000895B0E0A0E0EFEAF4E00C94BB246C0151
:10096000D62FC72FFC011581068102950F700E94BA
:100970009D0BE82E8823E9F0E12E1123D1F08C2F76
:10098000807F803451F080E28D0F8830F8F00111C3
:1009900004C08C2F807E8032C9F08091810282FF5A
:1009A00015C082E00E94600C0E949D0B91E0E82E31
:1009B000E926BC2EB2949FE0B922FBE0FB15B8F10A
:1009C000EB2DF0E0E959FA4D0C94AC24E12CF1CF79
:1009D0000C2F0F70C07F11F00295007F112399F04A
:1009E000002359F080E28D0F883010F0D11107C03C
:1009F000802F0E94A70B0E94FD0B8D2F5AC0802FC5
:100A00000E94B70BF8CF8D2F0E942004002379F0AD
:100A100080E28D0F883010F0D11104C0802F0E9429
:100A2000AD0B03C0802F0E94BD0B0E94FD0BEB2D70
:100A3000E850FF0B349720F40E94241A0E941B03F5
:100A4000EE2089F00E94990B80FD0DC0F601158201
:100A50000E94930B0E947507C6010E94B6060E9471
:100A6000930B0E948507CDB7DEB7E9E00C94D7243D
:100A70002C2F2F70F22EC07FC03219F0F29480EF2D
:100A8000F822DD2341F0D130D1F1112309F444C023
:100A90000023F1F0B2CF8091810282FD15C01123B5
:100AA00059F0FF2029F08F2D0E94A70B0E94FD0B0B
:100AB00080E00E948903BBCF80E00E942004FF20D9
:100AC00009F4B5CF8F2DABCF112369F0011104C00C
:100AD0008F2D0E949B04ABCF013009F0A8CF8F2D42
:100AE0000E94DB0BA4CF0111A2CF8F2D0E94A20484
:100AF0008F2D0E94E70B8F2D0E94CB0B98CF1123D7
:100B000021F0063008F093CFE3CF053008F08FCF07
:100B10008F2D0E94A2048BCF0023D1F3D93349F447
:100B20003FEF87EE93E0315080409040E1F700C006
:100B300000008D2F0E9420047ACF8C2F86958695F9
:100B4000837069F0813009F072CF8D2F9C2F9370E4
:100B5000111102C080E090E00E94791A68CF8D2FB9
:100B60009C2F9370111102C080E090E00E94541AF3
:100B70005ECF612F8D2F0E947F0359CF8C2F837002
:100B8000A1F5111154CF4D2F429546954770440F52
:100B9000440F2D2F2F7030E0042E02C0220F331F80
:100BA0000A94E2F790E080E0D4FF09C08FE090E083
:100BB00002C0880F991F4A95E2F780959095C695D7
:100BC000C695C370822B932BC23049F058F4C130C4
:100BD00019F00E9448072BCF0E943F0728CF0E94A0
:100BE000510725CF0E943C0722CF8695112311F093
:100BF0008C2F8170882309F41ACF4D2F429546958A
:100C00004770440F440F2D2F2F7030E0042E02C088
:100C1000220F331F0A94E2F790E080E0D4FF09C06E
:100C20008FE090E002C0880F991F4A95E2F7809507
:100C30009095C695C695C370822B932BC23049F010
:100C400058F4C13019F00E94B007F1CE0E94A707F6
:100C5000EECE0E94B907EBCE0E945D07E8CECF70C2
:100C6000112329F08C2F0E9475078D2F32CF8D2FE5
:100C70000E94A2048C2F0E948507D9CED23F41F159
:100C800060F4D03FB9F0D13F81F0112309F446C0A0
:100C90000111B3CE8C2F8F711FC0D33F01F1D43F10
:100CA000A1F78091810282FD24C08C2F8F711123C6
:100CB00011F312C0112341F0053008F0B8CE8C2F8B
:100CC0008F710E949707B3CE063008F0B0CEF7CFF1
:100CD0008C2F8F711111CFCF0E947507A8CE1123D1
:100CE00029F08C2F8F710E946907A1CE0E946407A2
:100CF0009ECE112349F0CF718C2F0E94750763E0BF
:100D00008C2F0E94420C93CE81E00E94600C023036
:100D100008F48DCE82E00E94600C89CE002359F049
:100D2000D93309F006CFEFEFF7EE23E0E150F040C2
:100D30002040E1F7FCCE8C2F8F719DCF0F931F9336
:100D4000CF93DF93EC01688179818D810E947808CF
:100D50008C010E94C2070E943B07B801CE010E948D
:100D6000A904DF91CF911F910F910895CF93DF9345
:100D7000EC018C81882399F0CE010E94A702811199
:100D800011C00E949D0B882351F08D81882339F07A
:100D90008091810282FF03C082E00E94600CDF919B
:100DA000CF910895CE010E949E06CE010E9470024E
:100DB000F6CF90E080E00E94541A90E080E00E941C
:100DC000791A0E94C40B0E94FD0B0E94FD150E941F
:100DD000E11508950E948C0B0E94D90608950E9487
:100DE000B40B0E94EA06089592959F70963091F098
:100DF00058F4925F9F70923058F4803F19F030F4AD
:100E0000883E30F481E008959A5FF4CF843FD1F3B7
:100E100080E00895883EB0F3813FD1F7F3CFFC0125
:100E20002481222339F0808191810E946D080E94E3
:100E3000F406089580E00895A6E0B0E0E2E2F7E06D
:100E40000C94C2242696E2E00C94DE24A7E0B0E0E5
:100E5000ECE2F7E00C94C2242796E2E00C94DE2446
:100E600008950E94300708950E9431079093C901A8
:100E70008093C801089508950E9434070895209131
:100E8000C8013091C901822B932B0E943407089529
:100E90002091C8013091C901822393230E94340715
:100EA00008952091C8013091C901822793270E949B
:100EB000340708950E94E20108950E945A07909312
:100EC000C7018093C601089590E080E00E945D070D
:100ED000089521E030E0A90102C0440F551F8A9512
:100EE000E2F7CA010E945D07089521E030E002C0E8
:100EF000220F331F8A95E2F78091C6019091C701B6
:100F0000822B932B0E945D07089521E030E002C000
:100F1000220F331F8A95E2F7209530958091C60104
:100F20009091C701822393230E945D07089521E0D9
:100F300030E002C0220F331F8A95E2F78091C6018C
:100F40009091C701822793270E945D070895209101
:100F5000C6013091C701822B932B0E945D07089533
:100F60002091C6013091C701822393230E945D071F
:100F700008952091C6013091C701822793270E94CE
:100F80005D0708950895262F277091E001C0990FFD
:100F90002A95EAF723E0769567952A95E1F7660F9B
:100FA000771F660F771FFA01E60FF71F50E040E04A
:100FB000682F70E08191DF0111979B01042E02C020
:100FC000369527950A94E2F7217021952827292341
:100FD00028272C934F5F5F4F4430510559F70895F0
:100FE000A82FA77023E0969587952A95E1F7880F9B
:100FF000991F880F991FFB01E80FF91F50E040E08F
:1010000080E0219130E00A2E02C0369527950A949F
:10101000E2F721703327042E01C0220F0A94EAF769
:10102000822B4F5F5F4F4430510559F70895262FAB
:10103000983070F4853060F4682F70E085E0989FF8
:10104000600D711D112442EB51E0822F0E94C307F5
:101050000895292F983068F4853058F490E062EBB9
:1010600071E035E0239F800D911D11240E94F0074F
:10107000089580E00895B0E0A0E0E1E4F8E00C9489
:10108000BB247C010091C6011091C7018091C80169
:101090009091C901082B192BCFE0D0E0CC24C39448
:1010A000D12CBC2EC6010C2E02C0880F991F0A94A9
:1010B000E2F780239123892B49F4219790F7B12CF3
:1010C0008B2DCDB7DEB7E9E00C94D724B7018C2F78
:1010D0000E945D0F019789F3F3CFCF93DF93EC016B
:1010E0000E943B08BE010E945D0FDF91CF910895E1
:1010F0001F93CF93DF93EB019091B101992339F0C6
:10110000CB010E946D08DF91CF911F910895882334
:1011100069F0CB010E943B08182F682FCE010E9476
:101120001708BE01812F0E945D0FEDCFCB010E94F9
:101130002908182FF6CFE1E0F0E0DF0102C0AA0F86
:10114000BB1F6A95E2F7BD01DF0102C0AA0FBB1FFA
:101150004A95E2F7AD01462B572B02C0EE0FFF1F59
:101160002A95E2F79A01282339232417350719F421
:101170008E2B9F2B0895E095F0958E239F23089545
:101180001F93CF93DF93C091CA0117E08091CB01E9
:101190008C1304C0DF91CF911F910895D0E01C9F64
:1011A000F0011D9FF00D1124E453FE4F2081318189
:1011B000428153816481758186810E942607219630
:1011C000C770E4CF209104023091050240910602DD
:1011D00050910702609108027091090280910A0201
:1011E0000E9426070895CF93DF9380910A02807FA3
:1011F00009F04DC080910902882309F448C0E091AC
:10120000CA015091CB01C0910502D09104026091B6
:1012100006027091070247E05E17C9F18E2F90E039
:10122000E49FF0011124E453FE4F2481222391F125
:10123000489FF001499FF00D1124DF01A453BE4FD8
:1012400011962C9111972C1325C02C912D1322C08F
:1012500015962C91159721111DC012962D913C9138
:10126000261B370B283C3105A8F480910A028F70A9
:10127000806180930A02EE52FE4F80818F70806100
:10128000808384E092E00E94B6060E94C008DF914D
:10129000CF910895FC013196E770BECF482F209181
:1012A000CA019091CB0157E0291302C080E0089554
:1012B00030E0529FF001539FF00D1124E453FE4F94
:1012C0008181681306C08081481303C08581811124
:1012D000EECF2F5F3F4F2770E7CFA4E1B0E0E3E709
:1012E000F9E00C94B8248C0186E0F801DE011F9629
:1012F00001900D928A95E1F7F8018481E58094E0F0
:10130000A92E92E0B92E9091080291111FC0882356
:10131000D1F0EE20A9F0C8010E940F07F82E882313
:1013200079F087E0F801D50101900D928A95E1F7F7
:10133000C5010E9476030E94F3080E94E2085FC084
:10134000C8010E94B606FF24F39459C0C080D18022
:1013500082809380F090090220910602309107026A
:10136000A401421B530BFF2009F4F9C0483C51056E
:1013700008F0A7C0882309F442C09091050280912B
:101380000A02282F207F09F05CC09D1116C09091A1
:101390000402C91212C0E1104EC08F7080618093A8
:1013A0000A020E94E20884E092E00E94B606809160
:1013B0000A02F8018683F12C22C0E1103CC06D2D99
:1013C0008C2D0E944E096D2D8C2D0E944E09E82E09
:1013D0008111F1CFCF86D88A8F8598890E946D08B8
:1013E000292F22952F70243078F49F702230A8F096
:1013F0009923B9F0F8019681907F99F4FE2C8F2DF6
:101400006496ECE00C94D4242A5F2F70223068F0AC
:10141000C8010E94B606EF2CF1CF992311F0882362
:1014200069F3805E883050F3F3CF803F38F3815FFB
:10143000833070F7E3CF80910A02816080930A02C3
:10144000BACF9D1113C090910402C9120FC0E110D0
:101450000DC08683C8010E94B60687E0F801A4E0AB
:10146000B2E001900D928A95E1F767CFC8010E9422
:101470000F07882309F464CFEE2009F461CF80912F
:101480000A02803288F020910402309105023987E7
:1014900028879B868A86909108029C871D868E8766
:1014A000CE0108960E94B60687E0F801A4E0B2E0FB
:1014B00001900D928A95E1F70E94F3080E94E208DC
:1014C00042CF90910A02292F207FA1F4682D9A8A99
:1014D000898AA6017A899E2D0E941C0784E092E0E9
:1014E0000E94B60687E0F50111928A95E9F70E94FD
:1014F000E20861CF882309F482CF809105028D1123
:1015000010C080910402C8120CC0E1100AC096837A
:10151000C8010E94B60687E0F50111928A95E9F7A5
:101520006ECFC8010E940F07882309F409CFEE206F
:1015300009F406CF80910A02803208F4B5CF2091D9
:101540000402309105023A8329839C828B82909118
:1015500008029D831E828F83CE010196A3CF483C53
:101560005105B8F5882309F4EECEFE2CEE2009F4DF
:10157000E7CE809105028D111EC080910402C81231
:101580001AC080910A0280FD0DC0982F907F51F003
:101590008683903F09F45ECF982F907F905F8F7085
:1015A000892B57CF87E0F801A4E0B2E001900D92BB
:1015B0008A95E1F724CFC8010E940F07811174CFEB
:1015C00080910A02816080930A02C8010E94B606D7
:1015D00016CF682D9A8A898AA6017A899E2D0E9443
:1015E0001C0787E0F50111928A95E9F7A6CEAEE0D7
:1015F000B0E0EDEFFAE00C94C124288739874A87E0
:101600005B876C877D878E87CE0108960E946D0967
:101610008823B1F06C85662341F0288539854A8599
:101620005B857D858E850E94260717E08091CA0123
:101630009091CB0189133DC02E96E3E00C94DD24FC
:1016400087E0FE013896DE01119601900D928A9591
:10165000E1F78C85882349F32091CB0130E0C90163
:101660000196877099274091CA014817190699F089
:1016700097E0929FD001939FB00D1124A453BE4FC9
:10168000FE01319601900D929A95E1F78093CB017E
:101690000E94C008CACF0E94EF061092CB011092A0
:1016A000CA0187E0E4E0F2E0DF011D928A95E9F7E4
:1016B000BCCF819FC001112484539E4F0E946D09AD
:1016C000882309F4B9CFE091CA011E9FF0011124CB
:1016D000E453FE4F208131814281538164817581C1
:1016E00086810E9426078091CA0190E0019687704A
:1016F00099278093CA019ACF682F80910001909119
:1017000001010E94E61A0895682F809100019091CE
:1017100001010E94E91A0895809100019091010150
:101720000E94EC1A089580911302869586958695FD
:101730000895809113028770089590911302977015
:1017400081E009F480E0089580911F02089590914E
:101750001F02892B80931F020895809590911F028C
:10176000982390931F02089510921F02089590915C
:101770001E02892B80931E020895809590911E026F
:10178000982390931E02089510921E0208950895C2
:101790000E94C70B089590911402292F282331F03D
:1017A00080958923809314020E94C80B08950895A0
:1017B0000E94D70B089590911502292F28232817EE
:1017C00029F0982B909315020E94D80B08959091C0
:1017D0001502292F282331F0809589238093150243
:1017E0000E94D80B089580911502882329F0109249
:1017F000150280E00E94D80B0895CF93DF93E0910B
:101800000001F091010180911F028083E0910001AD
:10181000F0910101808190911E02892B808390912B
:101820001502992381F0E0910001F091010180817E
:10183000892B808380910001909101010E949E1A62
:1018400081110E94F30BC0910001D091010148E089
:1018500050E06BE072E0CE010E94FD24892B59F02C
:1018600088E0FE01ABE0B2E001900D928A95E1F7CD
:10187000CE010E943B1ADF91CF91089508950E94F6
:101880003E0C08959091810292FF11C098E0899FCB
:1018900090011124622B609313020E9475078091BE
:1018A00013028695869586950E943F0C08950E94A6
:1018B000750708951092130280E00E943F0C08956E
:1018C000909113028095892380931302282F27700B
:1018D00069F4891759F09091810292FF07C08695AB
:1018E000869586950E9485070E945A0C08959091CE
:1018F000810292FB222720F9281769F080FB92F9D8
:101900009093810280918002909181020E94C50C87
:1019100082E00E94600C08958091810282FB8827FA
:1019200080F991E089270E94770C089581E00E9458
:10193000770C089580E00E94770C08956FEF7FEF99
:1019400090E080E00E944F25089590E080E00E94A2
:101950001B2521E0863E9E4F09F020E0822F08954E
:1019600082E090E00E941325089583E090E00E94B9
:1019700013250895682F83E090E00E943125089593
:1019800084E090E00E941B250895BC0184E090E073
:101990000E944F250895AB01BC018FE090E00E94AA
:1019A00043250895AB01BC0183E190E00E944325EB
:1019B000089560E070E0CB010E94D20C089560E0D1
:1019C00070E0CB010E94CB0C0E94D90C0895A8E0D6
:1019D000B0E0EDEEFCE00C94C22466EE7EEF90E009
:1019E00080E00E944F2560E082E090E00E94312577
:1019F00060E083E090E00E9431251092C9011092CE
:101A0000C80160E074E184E090E00E944F2560E04E
:101A100086E090E00E9431256FEF87E090E00E9421
:101A2000312540E050E0BA0188E090E00E94432573
:101A300060E084E290E00E94312560E087E190E080
:101A40000E94312560E08CE090E00E94312560E04A
:101A50008DE090E00E94312519821A821B821C823F
:101A60001D821E821F82188648E050E068E170E007
:101A7000CE0101960E94212540E050E0BA0180E2AB
:101A800090E00E9443250E94DF0C2896E2E00C942F
:101A9000DE240E94E70C08958EE090E00E9413255A
:101AA00091E0811101C090E0892F0895682F8EE0A8
:101AB00090E00E9431250895A6E0B0E0E2E6FDE066
:101AC0000C94C0240E94C51B8C018091200290912F
:101AD00021028017910781F019821A820E94C51B8A
:101AE000682F49815A81792F80E090E00E94460357
:101AF00010932102009320022696E4E00C94DC244B
:101B00000E94791060932E0270932F02809330020E
:101B10009093310260932A0270932B0280932C02DF
:101B200090932D020895089508950E94930D0895AD
:101B300008950E94980D089581E0089583E990E149
:101B40000E9484140E94940D0E94950D08950E9495
:101B500068120895089508950E94AA0D0E94AB0D81
:101B600008950E9496100E941A0308950E94BC1BBB
:101B70000E9453100E9480120E94C6110E94B10D53
:101B80000E940D170E9490120E94990D0895A6E0E0
:101B9000B0E0EDECFDE00C94B9240E949C0D8111A5
:101BA0000CC00E945C0D0E9468120E941F160E94C9
:101BB0002D032696EBE00C94D5240E94E91182E2D5
:101BC000A82E82E0B82E750110E0F70101917F0187
:101BD000812F0E94BB101F5F183009F441C0081705
:101BE000A1F38091320281FD0E94C1100E94A70DD5
:101BF000C82E10E099249394812F0E94BB10082FC7
:101C0000F50181915F01081729F1D02ED826F12C1A
:101C1000EE24E3948D2D8E21A9F0CC2099F0F98249
:101C20001A830E94C51B9C838B839D8291E0802F29
:101C30008E2109F490E049815A816B817C818D81EC
:101C40000E944603F394EE0CF5E0FF12E3CFF5019A
:101C5000319700831F5F183079F60E94800DA3CF63
:101C60000813BFCF9ECF1F93CF93DF930E94620FC5
:101C7000EC01C11580E5D807F0F5C11580E4D8075F
:101C800008F09CC0C03ED10520F5CD3CD10508F040
:101C900082C0C83AD10578F4C53AD10508F073C0BE
:101CA000C130D10519F1209709F1C430D105F0F404
:101CB000D0E0C0E01BC0C33CD105D0F7C85AD0E08B
:101CC000CC0FDD1FCB59DE4F0990D881C02DD464D5
:101CD0000DC0C11580E2D80708F0D1C0C11581E060
:101CE000D80708F05AC0C83ED10510F7CE01DF91E1
:101CF000CF911F910895C03682E5D80718F5C034FA
:101D000082E5D80708F06BC0C03282E5D80708F03A
:101D10005FC0C11582E5D80708F497C02C2F26951F
:101D2000269580E2289F900111248C2F8370C1E0BA
:101D3000D0E002C0CC0FDD1F8A95E2F7C22BD32B77
:101D4000DD68D4CFC03A82E5D80760F4C03882E5B8
:101D5000D80708F459C0CF71D0E0DC2FCC27C46F6E
:101D6000D06AC4CFC03C82E5D80708F462C0C03E48
:101D700082E5D80708F09CCFDC2FCC27CC27DF7179
:101D8000C06FD06AB3CFC55AD0E0C556DE4FC88108
:101D9000D0E0D064ABCFD065A9CF8D2F0E940410C6
:101DA000182FCE0199270E94620FC12FD0E0DC2F9F
:101DB000CC27CC27DF71C82BD92B98CFCE01992700
:101DC0000E94620FCC27DF70C82BD92BD06A8ECF30
:101DD000CF71D0E0DC2FCC27C16FD06A87CF2C2FFA
:101DE00026952695277080E2289F900111248C2F3C
:101DF0008370C1E0D0E002C0CC0FDD1F8A95E2F70E
:101E0000C22BD32BDC6872CF2C2F269526952770FA
:101E100080E2289F900111248C2F8370C1E0D0E0D4
:101E200002C0CC0FDD1F8A95E2F7C22BD32BDA68F4
:101E30005DCF8C2F8F710E940410C82FD0E0DC2F53
:101E4000CC27CC27DF71D06251CF8C2F8F710E94AD
:101E5000041055E0D695C7955A95E1F7CF70D0E0BC
:101E6000DC2FCC27282F30E084FF05C044E0220F70
:101E7000331F4A95E1F7C22BD32BD06937CF8D2F73
:101E80008F710E940410182FCE0199270E94620FB3
:101E9000C12FD0E0DC2FCC27CC27DF71C82BD92B6A
:101EA000D2CF462F783030F4653020F4672F0E946F
:101EB0001A02089590E080E008950E94510F0E9458
:101EC000330E089582389105B9F1B0F4813391054C
:101ED00009F47DC048F48932910509F46DC08A3255
:101EE000910509F47BC008958533910509F45FC01D
:101EF0008933910509F10895833E9105D9F138F4AC
:101F0000803E910529F1823E910579F10895863E42
:101F10009105D9F1873E910509F43EC0843E9105B3
:101F200041F52091810221FF24C08091800284FD2F
:101F300019C087EE90E0089520918002237009F087
:101F40005AC02091810223FF14C089E290E00895D5
:101F50002091800220FD38C03091810230FF09C0FD
:101F600024FF43C090E080E008952091800222FD8C
:101F7000F7CF08952091800222FD3AC0309181026E
:101F800030FD39C024FFF5CFEDCF2091800223FF33
:101F9000F0CF24FDE7CFCDCF2091800223FD2EC0CE
:101FA0003091810231FFEECF84EE90E008952091D0
:101FB000800225FFDECFC9CF2091800225FD21C000
:101FC0002091810223FFD5CF89E390E0D2CF2091E9
:101FD000800226FFCECF8AE290E008952091800211
:101FE00026FFC7CF81E390E0089583EE90E0089547
:101FF00082EE90E0089580EE90E0089586EE90E005
:10200000089585E390E008959091800292FF10C0BA
:1020100041E0282F2471243009F040E031E0282FDE
:102020002871283009F030E0431711F02CE08227A6
:1020300093FF10C041E0282F2471243109F040E0C3
:1020400031E0282F2871283109F030E0431711F0D2
:102050002CE082273091810230FF10C051E0282F00
:102060002171213009F050E041E0282F28712830FB
:1020700009F040E0541711F029E0822731FF10C029
:1020800041E0282F2171213109F040E031E0282F73
:102090002871283109F030E0431711F029E0822738
:1020A00094FD877E089510927C0210927D0210921A
:1020B0007E0210927F020895CF92DF92EF92FF92FC
:1020C0006B017C010E94681281110EC00E94D11B1D
:1020D000C61AD70AE80AF90AC0927C02D0927D0299
:1020E000E0927E02F0927F02FF90EF90DF90CF901F
:1020F00008950F931F930E946812882329F00E946D
:10210000D11B1F910F9108950E94D11B00917C0259
:1021100010917D0220917E0230917F02600F711F2D
:10212000821F931FEECF80E0089508950E94A50CB2
:10213000811102C00E94490D0E94B00C80933202AE
:102140000E94C00C90938102809380020E9495109F
:102150000E94B50C90E00E943C078091C6019091CE
:10216000C7010E945A0708950E94DD01089508954D
:102170000E94B7100895E82FF0E0E557FD4F8081E9
:102180000895089580EA8A95F1F7089500C00895AA
:102190000E94C210089508950E94CB100895EF92F6
:1021A000FF921F93CF93DF9300D000D0CDB7DEB75F
:1021B0000E946812182F60919302882309F447C087
:1021C00019821A821B821C82862F90E09E012F5F4B
:1021D0003F4F7901B90185579D4F0E949E12882378
:1021E000E9F08091820290E044E050E0B701855729
:1021F0009D4F0E94FD2421E020933302892BC9F4D6
:1022000010E00E94B810812F0F900F900F900F9048
:10221000DF91CF911F91FF90EF900895809133024D
:10222000882371F384E0F70111928A95E9F71092FF
:102230003302E0918202F0E0E557FD4F89819A81F7
:10224000AB81BC8180839183A283B383DACF70E0BA
:1022500065577D4F8091820290E085579D4F0E9487
:1022600025130E94CC10CFCFF894E82FE295EF70A1
:10227000F0E031A1282F2F7081E090E001C0880F9D
:102280002A95EAF7982F9095932391A392A1892BF1
:1022900082A378940895CF93DF9382E30E94341150
:1022A00086E30E94341184E30E94341185E30E9486
:1022B0003411CEE9D1E089918F3F11F00E943411A1
:1022C00081E0C33AD807B9F7DF91CF910895B0E024
:1022D000A0E0EDE6F1E10C94BC24EC01D62E062F33
:1022E00010E0C8018D559E4F7C01FC0180818F3F1D
:1022F00009F445C0F894E82FE295EF70F0E091A161
:102300008F7021E030E001C0220F8A95EAF7892F13
:10231000822B81A382A12095282322A378940E9456
:10232000C610EEE9F1E043EA51E031E0C12C219121
:102330002F3F51F1A22FA295AF70B0E090968C91F3
:1023400090E02F7002C0959587952A95E2F780FD61
:102350001BC0832FC82A330F4E175F0741F7F701C1
:1023600080818F3F11F00E94341161E0C11001C0E3
:1023700060E08D2D0E94C810C00FD11FC882CDB75C
:10238000DEB7E8E00C94D82480E0E4CF809102012D
:102390008091020194E0811190E09093930284E097
:1023A000891B809382020E944B1188E0EBE8F2E0E7
:1023B000DF01982F1D929A95E9F7E3E8F2E0DF013B
:1023C0001D928A95E9F784E00E9427120E94B410BA
:1023D0000895A8E0B0E0EFEEF1E10C94BF248E0187
:1023E0000F5F1F4F88E0F80111928A95E9F7F12CF1
:1023F0006F2DC8010E946711F394F4E0FF12F8CF2B
:1024000048E050E0B80183E892E00E94FD2421E01A
:10241000009709F420E0892B41F088E0F801A3E857
:10242000B2E001900D928A95E1F76091930270E01D
:1024300065577D4F44E083E892E00E942812182FF0
:102440000E94CF10812B2896E5E00C94DB240895A0
:10245000CF92DF92EF92FF920F931F93CF936C0175
:102460007B01042F222349F081E0809336020E94F1
:10247000C51B9093350280933402C0913602C1117E
:102480000AC0C0E08C2FCF911F910F91FF90EF9069
:10249000DF90CF90089580913402909135020E9490
:1024A000DD1B059770F310E0A801B601C7010E947B
:1024B000FD24892B41F0A801B601C7010E940A251D
:1024C00010923602DFCFC0E0FBCF0E944C0D089582
:1024D00080913902811107C00E948B24882351F01A
:1024E00081E08093390281E090913902913009F0C6
:1024F00080E0089582E0809339020E948624F3CF21
:102500000E94A50C811102C00E94490D0E94651213
:10251000809302010E94681281110E94D4120895D2
:102520000E946812811102C00E94D712089581E0B2
:1025300090913A029A3008F080E008950F931F932B
:10254000CF93DF93EC018B0180913A028A30B8F48B
:10255000B801CE010E942213C82F811122C08091A0
:102560003A028F3FB9F40E94C51B909338028093C2
:1025700037028C2FDF91CF911F910F910895809199
:102580003702909138020E94DD1B843F914000F792
:10259000C0E0EFCF8F5F80933A028A3020F7C1E02E
:1025A000E8CF10923A02E5CF0E94A01C08950E9445
:1025B000A31C0895B0E0A0E0E0EEF2E10C94BD248D
:1025C0007901C82F880FDD0B41155105A9F0FE01D7
:1025D00093E0EE0FFF1F9A95E1F7ED5FFE4F8181CB
:1025E0009281855C9D4F208130E04217530708F4AB
:1025F0009A01A9010E940A25CE010E948C1DD82EA5
:102600008823D1F001151105B9F083E0CC0FDD1F4F
:102610008A95E1F7FE01ED5FFE4F438150E004171C
:10262000150708F4A801CD5FDE4F6C817D81655CE4
:102630007D4FC7010E940A258D2DCDB7DEB7E7E09B
:102640000C94D9240E941C1408950E9433140895F8
:10265000A4E0B0E0EEE2F3E10C94C02460915002FB
:102660007091510280915202909153020E94EC1B92
:1026700011E0643671058105910518F10E94791009
:102680006E5F7F4F8F4F9F4F69837A838B839C83CD
:1026900010E000E030E020E044E050E0BE016F5F79
:1026A0007F4F82E00E94DA12182F882351F00E9497
:1026B000D11B609350027093510280935202909309
:1026C0005302812F2496E4E00C94DC24B0E0A0E0D7
:1026D000ECE6F3E10C94BA247C015B016A010E94F0
:1026E000971201E010E0882311F00AE010E0C1E049
:1026F000D0E0B501C701F6010995811104C021960A
:102700000C171D072CF4CDB7DEB7EAE00C94D624E5
:10271000CC9F9001CD9F300D300D112490E080E0D2
:1027200045E34A95F1F70000019682179307C1F738
:10273000E0CFA5E0B0E0EFE9F3E10C94BA245B014F
:10274000E090A701F090A80101E010E09E012B5F4E
:102750003F4F50E040E070E060E080E00E94DA121D
:10276000182F882309F44BC067018FEFC81AD80AC5
:1027700060914C0270914D0280914E0290914F02F7
:102780000E94EC1B643671058105910580F104E01F
:1027900010E09E012F5F3F4F50E040E070E060E0AE
:1027A00081E00E94DA12F82E64E070E0C6010E9417
:1027B0000E1711E09D81981310E01F2159F10E941E
:1027C000D11B60934C0270934D0280934E02909304
:1027D0004F0289819A81AB81BC818093480290939A
:1027E0004902A0934A02B0934B0211E013C064E087
:1027F00070E0C6010E940E179D818913C8CFF701B2
:1028000081819281A381B48189839A83AB83BC83C4
:102810001111DFCF8091480290914902A0914A02A4
:10282000B0914B02F50180839183A283B383812F02
:102830002596EAE00C94D6240F931F93CF93DF9351
:10284000EC018B0149E953E10E946613882331F0C2
:1028500048E253E1B801CE010E946613DF91CF91A7
:102860001F910F9108950F931F93CF93DF93C09102
:10287000A701D091A801CE01019624E0FB01DC0163
:1028800001900D922A95E1F764E070E00E940E1726
:1028900088836D817E818F8198850091440210919B
:1028A0004502209146023091470260177107820766
:1028B000930751F06093440270934502809346025F
:1028C000909347020E945C10DF91CF911F910F916E
:1028D00008950E945C1F0E94B60D0E94691F089512
:1028E0000E946E1F0E94C70D0E94881F08950E94BB
:1028F0005E1B0E94421F0E949E0D0E9469140E944E
:1029000070140E94AC0DFBCF9093AB018093AA0191
:102910000895282F35EB2303C001112497FF04C02D
:1029200080589109892F089580589F4FFBCF80913F
:102930005A0280FF0DC06091200170E0660F771F82
:102940006038710570F56115710569F1862F08957C
:1029500081FF07C06091200184E0689FB0011124CD
:10296000EFCF6091200182FD0AC080915902882337
:10297000A9F020911F0160912001821710F088E0DA
:10298000ECCF869FC001112433E0880F991F3A9540
:10299000E1F7622F70E00E949824D2CF68E070E0E7
:1029A000D5CF8FE7089581E0089580915A0280FF86
:1029B0000CC060911C0170E07595679575956795E1
:1029C0006115710549F1862F089581FF06C0609158
:1029D0001C0170E075956795F3CF60911C0182FD35
:1029E0000BC0909158029923A1F060911B01809136
:1029F0001C01961738F0682F70E06038710500F3FD
:102A00008FE70895899FC001112470E00E949824E7
:102A1000F4CF61E070E0D7CF81E008958D3C31F4D0
:102A20000E949714819580935E0208958E3C19F45C
:102A30000E949714F8CF8F3C31F40E94971481952F
:102A400080935D020895803D19F40E949714F8CF99
:102A5000893D29F40E94D51480935F0208958A3D30
:102A600021F40E94D5148195F7CF8B3D31F40E945B
:102A7000D51481958093600208958C3D19F40E94CD
:102A8000D514F8CF9FE2980F983070F4815D990BC0
:102A900021E030E001C0220F8A95EAF780915C02C4
:102AA000822B80935C0208958D3D31F480915A020F
:102AB000816080935A0208958E3D21F480915A02DC
:102AC0008260F7CF8F3DB9F780915A028460F1CFD1
:102AD00040915D028D3C59F480915E0287FF0DC0EC
:102AE00010925E0241110BC01092590208C08E3C38
:102AF00081F480915E0218169CF3442381F080914A
:102B00005F0290916002892B09F05AC0109258021E
:102B100008958F3C49F447FFF0CF10925D028091F9
:102B20005E028111ECCFE0CF803D19F41416ACF3B6
:102B3000E4CF90915F02893D29F41916F4F61092C2
:102B40005F02DBCF8A3D19F497FFD7CFF8CF909182
:102B500060028B3D29F497FFD0CF10926002CDCF59
:102B60008C3D19F41916CCF3C8CF9FE2980F98301A
:102B700090F4815D990B21E030E0B90102C0660F4D
:102B8000771F8A95E2F7CB01809590915C028923AB
:102B900080935C02B2CF8D3D31F480915A028E7FDA
:102BA00080935A02AACF8E3D21F480915A028D7FE4
:102BB000F7CF8F3D09F0A1CF80915A028B7FF0CFE4
:102BC00008950E94C51B9C0190915D0280915E0258
:102BD000982B21F0309357022093560290915F0278
:102BE00080916002982B21F030935502209354027B
:102BF0008BE592E00E94461A089586E0EBE5F2E04C
:102C0000DF011D928A95E9F710925902109258023D
:102C100010925A020895FC01828181110EC08381B5
:102C200081110BC08481811108C091E085818111DF
:102C300001C090E0892F8170089581E0FCCFA6E06B
:102C4000B0E0E5E2F6E10C94C12486E0EBE5F2E0C9
:102C5000DE01119601900D928A95E1F710925D02C6
:102C600010925E0210925F02109260028B819C8132
:102C7000892B89F080915602909157020E94DD1BAA
:102C8000AC01909159029923C9F1809121018417D7
:102C9000150608F440C08D819E81892B91F08091AA
:102CA0005402909155020E94DD1BAC019091580294
:102CB000992309F46AC080911D018417150608F450
:102CC00072C0BE016F5F7F4F8BE592E00E94F31AE6
:102CD000811105C08BE592E00E940B1681110E94C4
:102CE000E11586E0FE013196ABE5B2E001900D9270
:102CF0008A95E1F72696E3E00C94DD2420912201E9
:102D00008AE0289F900111242417350720F69F5F41
:102D10009093590202C09F3FD1F71B81112359F0B4
:102D20000E9497149FEF11160CF491E0899F802D5B
:102D3000112480935D021C81112359F00E94971485
:102D40009FEF11160CF491E0899F802D1124809340
:102D50005E0280915D02882309F49DCF10915E028E
:102D6000112309F498CF0E948914882351F080938D
:102D70005D02812F0E948914882329F080935E02CE
:102D80008ACF81E0F4CF81E0F9CF20911E018AE063
:102D9000289F900111242417350708F092CF9F5FD8
:102DA0009093580202C09F3FD1F71D81112359F023
:102DB0000E94D5149FEF11160CF491E0899F802D8D
:102DC000112480935F021E81112359F00E94D514B3
:102DD0009FEF11160CF491E0899F802D11248093B0
:102DE000600280915F02882309F46BCF109160022A
:102DF000112309F466CF0E948914882351F080932F
:102E00005F02812F0E948914882329F08093600239
:102E100058CF81E0F4CF81E0F9CF0895FC01680F2D
:102E2000791F8FEF91E36E177F0709F408952191C1
:102E3000822728E030E087FF06C0880F89272150CD
:102E40003109C9F7F0CF880FFACFCF93DF93EC01A8
:102E5000FB018581882309F4D2C09E0130572332BB
:102E6000310508F0B2C00E94C00C9093810280939B
:102E70008002FE01E150F047E232F10520F4ED5806
:102E8000FA4D0C94AC248091800281608093800282
:102E900093C0809181028860809381028DC080916F
:102EA00080028260F3CF809180028460EFCF8091B6
:102EB00080028860EBCF809181028160EDCF8091AC
:102EC00081028260E9CF809180028061DFCF8091B2
:102ED00080028062DBCF809180028064D7CF0E9425
:102EE000EF06809180028068D1CF809180028C6053
:102EF000CDCF809181028360CFCF809180028E7F81
:102F0000C5CF80918102877FC7CF809180028D7F5E
:102F1000BDCF809180028B7FB9CF80918002877F67
:102F2000B5CF809181028E7FB7CF809181028D7F56
:102F3000B3CF809180028F7EA9CF809180028F7D58
:102F4000A5CF809180028F7BA1CF0E94EF06809158
:102F500080028F779BCF80918002837F97CF809173
:102F600081028C7F99CF8091800282FB992790F912
:102F700021E0922790FB82F990FB83F987CF809123
:102F80008102982F909591708E7F892B90FB81F90B
:102F900083CF90918002892F8F7B96FF806476CFBC
:102FA0000E94EF0690918002892F97FB87F9805845
:102FB0006DCF81E00E94560D809180029091810238
:102FC0000E94C50C0E94EF0680E0DF91CF9108952A
:102FD00080E0F0CF90918002892F8F7E94FF8061F6
:102FE00055CF90918002892F8E7F90FF81604ECFC8
:102FF00090918102892F877F93FF88604DCF81E078
:10300000E4CF8B3109F465C040F58B3071F078F472
:10301000863009F447C020F4853059F180E00895E6
:10302000873009F448C08830C9F781E008958031BD
:1030300009F45DC068F48E3089F790913202892FCF
:103040008B7F92FF84608093320282FD4CC0EDCF73
:10305000863159F3893149F3E1CF8A3201F160F4C5
:103060008732B1F020F48E31C8F28D514CC08932D4
:10307000A9F60E949D02D9CF833440F48A3308F028
:1030800041C0853329F0883381F2C8CF833431F6CB
:1030900081E090E00E943C070E94EF06C6CF0E94AC
:1030A000490DC3CF80913202807F8093320281E04C
:1030B00080936402089590913202892F8E7F90FF51
:1030C00081608093320280FDB0CF817F8093320295
:1030D000ACCF90913202892F8D7F91FF82608093D7
:1030E000320281FFA2CF809132028160EFCF9091B6
:1030F0003202892F877F93FF88608093320283FD9D
:10310000F2CF93CF895321E030E0A90102C0440FF0
:10311000551F8A95E2F7CA01BDCF80E008950E944D
:103120008D180895CF93C82F809164028130B9F033
:10313000882331F08230A1F11092640280E00DC04A
:103140000E94A40B8232D1F78C2F0E948D1881111E
:103150001BC08C2F0E9401188170CF9108950E948E
:10316000A40B823289F38C2F0E948F1881110AC020
:10317000C43199F060F4CB3029F0C03169F782E0B6
:103180008093640281E0E8CF81E090E0E5CFC9322E
:1031900021F0C833B9F380E0DFCF10926402FBCF97
:1031A000C93209F440C0F0F4C431E9F1A8F481E077
:1031B000C73099F68093220184E1809321018AE04F
:1031C000809320018EE180931F0188E080931C0191
:1031D00088E280931B0104C082EE8C0F8A3070F16C
:1031E00081E0BBCFC03509F450C0B8F48AE0CF34D9
:1031F000B9F7E0916102F0916202309789F3208182
:10320000082E000C990B820F911D8F3F910509F03C
:103210000CF43FC08FEF8083E3CFC135C1F181E073
:10322000C23539F39ACF809163028823C9F2109294
:1032300063021092620210926102D2CFCD51C0930C
:103240006302C330C9F048F4C13099F081E291E0E3
:10325000C23051F010926302C3CFC53099F078F0BC
:103260008BE191E0C630B1F79093620280936102E6
:10327000B7CF82E291E0F8CF80E291E0F5CF8FE125
:1032800091E0F2CF8CE191E0EFCF86EFB2CF8FEFFC
:10329000B0CF97FFC0CF1082A3CFCF93DF93EB01C6
:1032A00086319C4711F50E94A40B9D81992399F0CA
:1032B0008A7A91E009F490E090936502811109C047
:1032C00089E20E947C0B0E94FD0B80E0DF91CF9190
:1032D000089585E3F6CF80916502811104C089E2EB
:1032E0000E94840BF0CF85E3FBCF81E0EFCF0F93FB
:1032F0001F93CF93DF93C42FD22FFC0185818823A6
:10330000C9F0409368020E94C51B909367028093A6
:10331000660280E28C0F883040F4C77081E001C003
:10332000880FCA95EAF70E949B04DF91CF911F9105
:103330000F91089510916802141332C080916602B3
:10334000909167020E94DD1B883C910548F5C0E220
:10335000CD0F1D17B9F080E2810F883040F417704F
:1033600081E001C0880F1A95EAF70E94A204C830D4
:1033700048F481E09D2F977001C0880F9A95EAF775
:103380000E949B04802F0E949204C83070F6D77070
:1033900081E001C0880FDA95EAF70E94A204C5CF48
:1033A00080E28C0F883008F6C77081E001C0880F7A
:1033B000CA95EAF7F2CF0F93DB0188519C4787301B
:1033C0009105A0F5FC01EB56FA4D0C94AC2406E2F5
:1033D00021EE41EE6AE17CE7CD010E94771980E0A1
:1033E0000F91089507E225EE45EE6BE17CE7F4CFFF
:1033F00006E221EE40EE68E17CE7EECF07E225EE43
:1034000044EE69E17CE7E8CF06E221EE42EE6CE1B2
:103410007CE7E2CF07E225EE46EE6DE17CE7DCCF0C
:1034200008E221E045EE6EE17CE7D6CF15968C915F
:10343000882319F010926802D3CF81E0D1CF909306
:103440006F0280936E0208950E946812811103C07A
:10345000809169020895E0916E02F0916F023097B9
:1034600029F00190F081E02D0995089580E00895FC
:103470000E94241A0895E0916E02F0916F02309735
:1034800021F00280F381E02D09950895E0916E020C
:10349000F0916F02309739F022E0DC012C93048028
:1034A000F581E02D09950895A3E0B0E0EAE5FAE1A1
:1034B0000C94C22420916C0230916D0228173907B8
:1034C000A1F090936D0280936C02E0916E02F091F6
:1034D0006F02309751F023E029839B838A83068013
:1034E000F781E02DCE01019609952396E2E00C9438
:1034F000DE24A3E0B0E0EFE7FAE10C94C2242091CF
:103500006A0230916B0228173907A1F090936B0281
:1035100080936A02E0916E02F0916F02309751F051
:1035200024E029839B838A830680F781E02DCE01E6
:10353000019609952396E2E00C94DE249C012E5F0F
:103540003F4FAC01485F5F4F80E02417350709F417
:103550000895F90191919F019923B9F38F5FF5CFF8
:10356000662349F0FC01329608962191261729F02E
:10357000E817F907D1F780E0089581E008959C01EC
:10358000FC0132969FEF80E04191461751F09F3F3A
:1035900019F4411101C0982F8F5F8630A9F79F3F22
:1035A00009F40895290F311D97FD3A95F9016283B9
:1035B0000895FC01329608962191261303C0DF017D
:1035C00011971C92E817F907B9F708950E94BF1ADE
:1035D00008950E94D91A0895029626E0FC011192DE
:1035E0002A95E9F70895DC01FB0111969C9111974A
:1035F0008181981322C012968C911297882319F01A
:10360000928189131AC013968C911397882319F00D
:103610009381891312C015968C911597882319F000
:10362000958189130AC014969C91992321F081E019
:103630002481291303C080E001C081E081700895D6
:1036400008950E94201B0895811106C081E0809397
:1036500070020E94211B089582E0F9CF83E08093DD
:1036600070020E94211B08950E94241B089581E08E
:10367000809370020E94211B08950E94371B0895B9
:10368000089508950E94411B0895089508950E9489
:10369000401B0895CF930E94451B0E94E9110E9490
:1036A000461BC0E08C2F0E94BB10811105C0CF5F6C
:1036B000C830C1F7CF91089581E0FCCF85B780680D
:1036C00085BF85B7806885BF08951F921FB61F927A
:1036D00011248F939F93AF93BF93809171028111B7
:1036E00013C08091940290919502A0919602B0919E
:1036F00097024196A11DB11D80939402909395026B
:10370000A0939602B0939702BF91AF919F918F9132
:103710001F901FBE1F90189580919C02843031F13C
:103720000E94FD021092710288E190E020E40FB641
:10373000F894A895809360000FBE2093600083B733
:10374000817F846083BF83B7816083BF78948895CD
:1037500083B78E7F83BF0FB6F894A89580916000E1
:10376000886180936000109260000FBE08950E94EF
:10377000EF060E940203089582E084BD93E095BDA8
:103780009AEF97BD80936E0008952FB7F8948091BB
:10379000940290919502A0919602B09197022FBF4A
:1037A00008952FB7F89460919402709195028091DA
:1037B0009602909197022FBF08959C014FB7F894FD
:1037C0008091940290919502A0919602B0919702F7
:1037D0004FBF821B930B0895CF92DF92EF92FF921F
:1037E0002FB7F894C0909402D0909502E090960282
:1037F000F09097022FBFA7019601261B370B480BAD
:10380000590BCA01B901FF90EF90DF90CF90089556
:1038100078941F921FB61F9211248F939F93AF939A
:10382000BF938091940290919502A0919602B091DD
:1038300097020196A11DB11D809394029093950269
:10384000A0939602B0939702BF91AF919F918F91F1
:103850001F901FBE1F90189587E797E79093010868
:103860008093000888E19AE00FB6F894A8958093B9
:1038700060000FBE90936000FFCF88E19AE00FB622
:10388000F894A895809360000FBE90936000FFCFDE
:103890008EE1489B02C08150E1F7489BFECF08951E
:1038A000589880E28A95F1F7589A0895FC013BE018
:1038B0003A95F1F798E020E080E031E040E14A9568
:1038C000F1F7880F489B02C08160232742E04A95A8
:1038D000F1F7000040E14A95F1F7915079F790E156
:1038E0009A95F1F799B132E03A95F1F7000040E18D
:1038F0004A95F1F7917092272081920F9083089555
:10390000A1E0B0E0E6E8FCE10C94BE2419828C0151
:103910007C01E60EF11C0E151F0541F481E0998132
:10392000911180E02196E6E00C94DA240E94481C74
:10393000CE0101960E94561CF80181938F01EBCFB6
:10394000509A589A08955098589AE89AE9E6F0E003
:1039500080818C7F808308956150770B91E001C056
:10396000990F6A95EAF720E031E0911108C022230F
:1039700091F0589A80E28A95F1F758980895492F66
:10398000482339F0589A232740E24A95F1F7969553
:10399000ECCF5898F9CF5898EDCFFF920F931F9323
:1039A000CF93DF93EC018C01060F111DC017D107D7
:1039B00029F4CDB7DEB7E5E00C94DB24F9900E9442
:1039C000501C68E08F2D0E94AC1CF0CF1F920F920C
:1039D0000FB60F9211240F931F932F933F934F9382
:1039E0005F936F937F938F939F93AF93BF93EF9367
:1039F000FF93CF93DF930F92CDB7DEB719820E946A
:103A0000481CCE0101960E94561C082F069506956B
:103A10000695282F22952570902F9570290F922FAB
:103A2000937026952695920F982797708981982BE9
:103A300009F05CC0043008F059C080E18A95F1F7C4
:103A4000589A509A82E08A95F1F700C0589888E019
:103A5000089F80011124D801AD5FBE4F1696ED91ED
:103A6000FC9117973097A9F06091A7017091A80178
:103A700014962D913C911597260F371F11968D9115
:103A80009C911297680F791F13964C9113978C9104
:103A90000995F801ED5FFE4F6381662351F0209197
:103AA000A7013091A80184819581820F931F0E9404
:103AB000CD1C0E94501C80E18A95F1F758985098CF
:103AC000589A80E18A95F1F7F801ED5FFE4F608129
:103AD000662351F02091A7013091A8018181928144
:103AE000820F931F0E94801C0E94481C0F90DF9140
:103AF000CF91FF91EF91BF91AF919F918F917F9166
:103B00006F915F914F913F912F911F910F910F9066
:103B10000FBE0F901F9018950F931F93CF93DF93B5
:103B2000EC0104970CF04CC0F894509A589885E03A
:103B30008A95F1F700009C2F969595708C2F8570D3
:103B4000980F892F83709695969523E0CC0FDD1FF3
:103B50002A95E1F7980F8E01092B0E94501C00C096
:103B600068E0802F0E94AC1C80E18A95F1F75098A4
:103B7000589A489B1EC087E090E048991CC0FE01FF
:103B8000ED5FFE4F63816623F9F02091A70130912C
:103B9000A80184819581820F931F0E94801C81114E
:103BA00013C0509A589A7894DF91CF911F910F913A
:103BB000089500C0DECF019729F4509A589A78945E
:103BC00080E0F2CF00C0D9CF0E94481C80E28A95E5
:103BD000F1F75898509A80E18A95F1F7CD5FDE4F62
:103BE0006881662351F02091A7013091A801898155
:103BF0009A81820F931F0E94CD1C0E94501C7894C2
:103C000081E0D2CF80917A0208959B01BA01909110
:103C10009C029430E9F48F708093E9009FEF8091CB
:103C2000E800915085FD06C085ED8A95F1F700000A
:103C30009111F5CF8091E80085FF0AC050E040E087
:103C4000C9010E94FF1F8091E8008E778093E800F1
:103C5000089543E050E0BC0182E00E94051E0895F3
:103C600046E050E0BC0182E00E94051E0895CF931B
:103C7000DF93EC0148E050E0BC0181E00E94051EAA
:103C800088E0FE01A2E7B2E001900D928A95E1F78B
:103C9000DF91CF91089580919B02811109C00E940C
:103CA0008F210E94EC218091E20084608093E200E9
:103CB000089510929B0208950E94371B0895609109
:103CC000980281E0611101C080E00E942E1B0895DE
:103CD00090919C0281E0943009F080E0609198021C
:103CE0000E94341B089542E061EC81E00E940B21A8
:103CF00042E261EC82E00E940B2190919C0281E003
:103D0000943009F080E0609198020E94241B08958D
:103D100080919E02833009F461C030F48130D1F18A
:103D2000823009F49EC008958A3009F48AC08B302D
:103D300009F46FC0893009F050C080919D02813232
:103D400009F04BC08091A1029091A202029708F065
:103D500044C08091E800877F8093E8008091E8006C
:103D600082FF37C09091F3008091F200029731F406
:103D70008091F100813011F0863021F48091F100C2
:103D800080937A028091E8008B778093E8000E940C
:103D90003F2123C080919D02813AF9F48091E8008F
:103DA000877F8093E8008091A1029091A202892BE5
:103DB00061F468E082E792E070E00E944E2080911A
:103DC000E8008B778093E800089560E090E080E061
:103DD000F3CF80919C028111C1CF089580919D0203
:103DE000813AD9F78091A1029091A202892BA9F77B
:103DF0008091E800877F8093E8008091E80080FF51
:103E0000FCCF80912B018093F1008091E8008E77A8
:103E1000BCCF80919D02813201F78091A1029091E7
:103E2000A202892BD1F68091E800877F8093E80079
:103E30000E943F2180919F0280932B010E94EF06F8
:103E4000089580919D02813241F68091E800877F3C
:103E50008093E8000E943F218091A00280937B0222
:103E6000089580919D02813A09F0B7CF8091E800D2
:103E7000877F8093E8008091E80080FFFCCF8091ED
:103E80007B02C1CF84B7877F84BF0FB6F894A89513
:103E900080916000886180936000109260000FBE86
:103EA00080E890E00FB6F8948093610090936100F1
:103EB0000FBE0E943D1B08950E948F210E94EC219D
:103EC000E2EEF0E080818460808378940E946B242D
:103ED000089583E291E00E941F1A089580919C0248
:103EE000853031F480919C02853019F00E94B71B17
:103EF00008950E948C1B80919A02882399F30E9456
:103F00004A1B882379F30E94E91F0E94EF06EACF3B
:103F100008959A014091A3025091A4020E94911F1A
:103F20000895492F55274330510519F168F4413060
:103F3000510509F444C04230510509F445C090E0F0
:103F400080E050E040E025C04132510549F1423265
:103F50005105A9F784E490E048E353E06115710549
:103F6000C1F08BE790E04DEB52E06130710589F0D4
:103F7000E6CF99278130910581F0009729F00297CB
:103F8000F1F6ECE3F2E002C0ECE6F2E0849190E0BE
:103F9000AF01F901518340830895EEE4F2E0F6CFDA
:103FA00089E090E042E852E06115710591F389E003
:103FB00090E04BE952E06130710559F3C0CF82E1E6
:103FC00090E04BEA52E0E5CF8BE390E040E752E02F
:103FD000E0CF80E189BD82E189BD09B400FEFDCF5B
:103FE0008091D8008F7D8093D8008091E00082601E
:103FF0008093E0008091E00081FDFCCF0895AF92B6
:10400000BF92CF92DF92FF920F931F93CF93DF93D4
:104010006C01EB018A010E945E21F82E811123C000
:104020000115110539F0F80180819181C81BD90B68
:10403000C80ED91EB12CA12C2097A9F08091E800C0
:1040400085FD22C08091E8008E778093E8000115FD
:104050001105A1F0F80180819181A80EB91EB182ED
:10406000A08285E0F82E8F2DDF91CF911F910F91C7
:10407000FF90DF90CF90BF90AF9008950E945E2197
:104080008823D1F2F82EEFCFF60181916F01809352
:10409000F1002197FFEFAF1ABF0ACECFFC0180914C
:1040A000A3029091A40286179707A0F061157105ED
:1040B00029F49091E8009E779093E80090E06115D4
:1040C000710551F4911108C08091E80082FF34C05D
:1040D00080E00895BC01F2CF80919C028823C1F159
:1040E0008530C1F18091E80083FD30C08091E80007
:1040F00082FDEACF8091E80080FFE1CF8091F3005C
:104100002091F200382F6115710519F02830310522
:1041100058F091E02830310509F090E02091E80056
:104120002E772093E800CBCF81918093F1006150EE
:1041300071092F5F3F4FE7CF80919C02882341F0A8
:10414000853041F08091E80083FFBECF81E0089583
:1041500082E0089583E00895FC018091A30290918C
:10416000A40286179707A0F06115710529F48091C4
:10417000E8008E778093E80090E06115710551F4B6
:10418000911108C08091E80082FF35C080E0089559
:10419000BC01F2CF80919C028823C9F18530C9F11E
:1041A0008091E80083FD31C08091E80082FDEACF74
:1041B0008091E80080FFE1CF8091F3002091F20030
:1041C000382F6115710519F02830310558F091E04C
:1041D0002830310509F090E08091E8008E778093D7
:1041E000E800CBCF84918093F10031966150710942
:1041F0002F5F3F4FE6CF80919C02882341F08530AE
:1042000041F08091E80083FFBDCF81E0089582E016
:10421000089583E00895982F973028F08F70809349
:10422000E90081E008959093E900242F762F50E073
:10423000981731F07091EC002091ED005091F00052
:1042400021FD02C09F5FE8CF3091EB003E7F3093AD
:10425000EB003091ED003D7F3093ED003091EB00AD
:1042600031603093EB007093EC002093ED0050939D
:10427000F0002091EE0027FDE5CF80E008958091C9
:104280009D0287FF13C08091E80082FF06C08091E5
:10429000E8008B778093E80004C080919C02811134
:1042A000F2CF089580919C028823D9F38091E80091
:1042B00080FFF8CF8091E8008E77ECCF2091E4006A
:1042C0003091E50095E6A9012091EC00822F8170E4
:1042D00020FF06C08091E80080FF06C080E00895BE
:1042E0002091E80022FD1AC080919C02882389F069
:1042F000853089F08091EB0085FD0FC02091E400AE
:104300003091E50042175307F9F29150E1F684E04D
:10431000089582E0089583E0089581E008950E9461
:10432000FE210E940622E0EEF0E080818160808321
:10433000E8EDF0E080818F77808319BCA7EDB0E0D5
:104340008C918E7F8C9380818F7E808310929B02D4
:1043500008950F931F93CF93DF930E94FE210E9435
:104360000622C8EDD0E088818F77888388818068B5
:10437000888388818F7D888319BC10929C0210925B
:10438000980210929A021092990200EE10E0F80141
:1043900080818B7F808388818160888342E060E0B8
:1043A00080E00E940B21E1EEF0E080818E7F80832F
:1043B000E2EEF0E08081816080838081886080838C
:1043C000F80180818E7F8083888180618883DF917E
:1043D000CF911F910F910895E8EDF0E080818F7EDD
:1043E0008083E7EDF0E080818160808384E082BF9C
:1043F00081E080939B020E94A9210895E8EDF0E0FE
:1044000080818E7F80831092E20008951092DA00FE
:104410001092E10008951F920F920FB60F9211248F
:104420002F933F934F935F936F937F938F939F93BC
:10443000AF93BF93EF93FF938091E10082FF0BC096
:104440008091E20082FF07C08091E1008B7F809322
:10445000E1000E946A248091DA0080FF19C08091F7
:10446000D80080FF15C08091DA008E7F8093DA003B
:104470008091D90080FF96C080E189BD82E189BD2D
:1044800009B400FEFDCF81E080939C020E944B1E88
:104490008091E10080FF19C08091E20080FF15C08B
:1044A0008091E2008E7F8093E2008091E200806143
:1044B0008093E2008091D80080628093D80019BC7C
:1044C00085E080939C020E945F1E8091E10084FF42
:1044D0002BC08091E20084FF27C080E189BD82E18A
:1044E00089BD89B5982F917080FFFBCF8091D8004E
:1044F0008F7D8093D8008091E1008F7E8093E100D2
:104500008091E2008F7E8093E2008091E2008160E2
:104510008093E20080919802882309F449C084E0E6
:1045200080939C020E94681E8091E10083FF29C055
:104530008091E20083FF25C08091E100877F809316
:10454000E10082E080939C02109298028091E10049
:104550008E7F8093E1008091E2008E7F8093E20065
:104560008091E20080618093E20042E060E080E0C0
:104570000E940B218091F00088608093F0000E94DF
:104580005C1EFF91EF91BF91AF919F918F917F91B1
:104590006F915F914F913F912F910F900FBE0F90B0
:1045A0001F90189519BC10929C020E94591E70CF42
:1045B0008091E30087FD93E090939C02B3CF1F921C
:1045C0000F920FB60F9211242F933F934F935F9347
:1045D0006F937F938F939F93AF93BF93CF93DF930B
:1045E000EF93FF93D091E900DF708091EC00C82F2A
:1045F000C17080FDC0E81092E9008091F000877FD3
:104600008093F00078940E9423231092E900809117
:10461000F00088608093F000CD2BCF70C093E9004C
:10462000FF91EF91DF91CF91BF91AF919F918F91CA
:104630007F916F915F914F913F912F910F900FBE9E
:104640000F901F901895AAE2B0E0E9E2F3E20C9413
:10465000C1248DE992E02091F100FC012193CF016A
:10466000F2E0853A9F07B9F70E94881E8091E80022
:1046700083FF1EC180919D0290919E029A3008F0A6
:1046800017C1E92FF0E0E456FA4D0C94AC248038C1
:1046900099F0823809F00CC18091A1028F708730A7
:1046A00008F006C18093E9008091EB0085FB882724
:1046B00080F91092E90006C08091990290919A02C7
:1046C000911182609091E800977F9093E800809329
:1046D000F1001092F1008091E8008E77E5C0882308
:1046E00009F4D3C0823009F0E3C080919F028111A8
:1046F000D6C08091A1028F702FEF280F263008F0CE
:10470000D7C08093E9002091EB0020FFC8C0933010
:1047100031F48091EB0080628093EB00C0C09091F7
:10472000EB0090619093EB0021E030E001C0220F9C
:104730008A95EAF72093EA001092EA008091EB0054
:104740008860EACF8111B4C010919F021F778091D9
:10475000E3008078812B8093E3008091E800877FDD
:104760008093E8000E943F218091E80080FFFCCF09
:104770008091E30080688093E30082E0111183E080
:1047800080939C0295C08058823008F091C080913F
:104790009F029091A0028C3D23E09207A1F583E057
:1047A0008A838AE289834FB7F894DE01139620E06A
:1047B0003EE051E2E32FF0E050935700E49120FFF8
:1047C00003C0E295EF703F5FEF708E2F90E0EA300C
:1047D000C0F0C7968D939D932F5F243159F74FBF3B
:1047E0008091E800877F8093E8006AE270E0CE0164
:1047F00001960E944E208091E8008B778093E8001C
:1048000057C0C096E7CF6091A1027091A202AE019D
:104810004F5F5F4F0E94891FBC01892B09F448C07C
:104820009091E800977F9093E80089819A810E9497
:10483000AC20E1CF8038E1F58091E800877F80935C
:10484000E800809198028093F10045CF811130C03B
:1048500090919F02923060F58091E800877F80936D
:10486000E800909398020E943F218091980288234B
:1048700011F084E005C08091E30087FDFACF81E06C
:1048800080939C020E94731E13C080919F0281300E
:1048900079F481E0933009F080E080939A021092DD
:1048A000E9008091E800877F8093E8000E943F2123
:1048B0008091E80083FF0AC08091E800877F8093A1
:1048C000E8008091EB0080628093EB00AA96E3E021
:1048D0000C94DD240895CF9380919C028823A1F04D
:1048E000C091E900CF709091EC00892F817090FD0C
:1048F00080E8C82B1092E9008091E80083FD0E94B7
:104900002323CF70C093E900CF9108950E948F2197
:1049100010929C020895E8EDF0E080818061808330
:104920008AE18A95F1F700C08091D90081700895DD
:1049300097FB072E16F4009407D077FD09D00E944C
:10494000E92407FC05D03EF4909581959F4F08958A
:10495000709561957F4F0895EE0FFF1F0590F491BC
:10496000E02D09942F923F924F925F926F927F9227
:104970008F929F92AF92BF92CF92DF92EF92FF926F
:104980000F931F93CF93DF93CDB7DEB7CA1BDB0B1B
:104990000FB6F894DEBF0FBECDBF09942A883988C0
:1049A00048885F846E847D848C849B84AA84B984C7
:1049B000C884DF80EE80FD800C811B81AA81B981D3
:1049C000CE0FD11D0FB6F894DEBF0FBECDBFED01E7
:1049D0000895AA1BBB1B51E107C0AA1FBB1FA61746
:1049E000B70710F0A61BB70B881F991F5A95A9F798
:1049F00080959095BC01CD010895FB01DC0104C0B8
:104A00008D910190801921F441505040C8F7881BC6
:104A1000990B0895FB01DC0102C001900D924150F9
:104A20005040D8F70895F999FECF92BD81BDF89A0C
:104A3000992780B50895A8E1B0E042E050E00C94D9
:104A40005725DC01A40FB51F4150504048F0CB0161
:104A5000840F951F2E910E94322541505040D0F76F
:104A60000895262FF999FECF92BD81BDF89A01973E
:104A700000B4021639F01FBA20BD0FB6F894FA9AA6
:104A8000F99A0FBE08950396272F0E9432250E949F
:104A90003125252F0E943225242F0C943225019692
:104AA000272F0E9432250C943125DC01CB01FC011B
:104AB000F999FECF06C0F2BDE1BDF89A319600B477
:104AC0000D9241505040B8F70895F894FFCFE80494
:104AD000E804380538059D05B90517051705BE0515
:104AE0002F063E063E067D17F11785174F17531701
:104AF000891757178D1799176317EA1767179D17A7
:104B00006B17A117C9176F17A517D0177517AB1714
:104B1000B3175B1791175F1795177917AF17BF1763
:104B2000D917E81749178117F817F819FE19E71967
:104B3000F219041A0A1A101A47236F2358246F23F4
:0C4B40005824A223C32358241A2426243E
:104B4C00160201000000010000000000000004013A
:104B5C000000000405000000000000280850011EA1
:104B6C000A1401021E371E301E291E01E200E90044
:104B7C00EA00B500B600B700CD008301CC008A0175
:104B8C00920194012102230224022502260227020B
:104B9C002A02B300B4006F0070009F01CB019F028A
:104BAC00A002818283E200E900EA00B500B600B7FA
:104BBC0000CD008301CC008A0192019401210223D3
:104BCC000224022502260227022A02B300B4006F37
:104BDC000070009F01CB019F02A002818283F4939D
:0A4BEC00929194323634353B0200FA
:00000001FF
