:100000000C9446010C94C31D0C9463010C94630181
:100010000C9463010C9463010C9463010C946301D0
:100020000C9463010C9463010C94E8220C94BC239F
:100030000C94421C0C9463010C9463010C946301B6
:100040000C9463010C9463010C9463010C946301A0
:100050000C9463010C94E51C0C9463010C946301F3
:100060000C9463010C9463010C9463010C94630180
:100070000C9463010C9463010C9463010C94630170
:100080000C9463010C9463010C9463010C94630160
:100090000C9463010C9463010C9463010C94630150
:1000A0000C9463010C9463010C94630114001A0016
:1000B000090013000A001D0015211624170007006F
:1000C00004221B00060019000528000000002A0079
:1000D000587C2C4133001C0018000F000D00380024
:1000E0000C31083411000B001232370036001000BA
:1000F0000E380000000029412C0428413500010081
:1001000001004E004A0039002500240023002D0084
:100110002622500051002F00272800000000010077
:1001200001002B003100010001004B004D003400A4
:1001300020001F001E002E0021324F005200300010
:1001400022380000000001000100280010034D00CB
:1001500069006E00690044006F00780000001C0315
:1001600054006800610074002D00430061006E00BF
:1001700061006400690061006E000000040309046E
:1001800009023B00020100A0FA090400000103017A
:100190000100092111010001224400070581030823
:1001A0000001090401000103000000092111010000
:1001B00001227B00070582032000011201000200DA
:1001C000000008EDFE603001000102000105010998
:1001D00002A10185020901A10005091901290815DB
:1001E00000250195087501810205010930093115C5
:1001F00081257F95027508810609381581257F952F
:100200000175088106050C0A38021581257F9501C4
:1002100075088106C0C005010980A1018503190187
:100220002AB700150126B700950175108100C00599
:100230000C0901A101850419012AA002150126A0BB
:1002400002950175108100C005010906A10105078D
:1002500019E029E71500250195087501810295012E
:10026000750881010507190029FF150026FF009573
:100270000675088100050819012905150025019555
:100280000575019102950175039101C011241FBEEE
:10029000CFEFDAE0DEBFCDBF11E0A0E0B1E0E6E0F5
:1002A000FDE402C005900D92AA3AB107D9F722E009
:1002B000AAEAB1E001C01D92A33BB207E1F70E9498
:1002C0008D140C9442260C9400000F931F9381E12F
:1002D00090E00E943E1A882321F081E198E10E947B
:1002E000460288E090E00E943E1A882321F088E0D0
:1002F00098E10E94460287E190E00E943E1A88231E
:1003000021F087E198E00E94460286E190E00E9499
:100310003E1A882321F086E198E00E94460207E118
:1003200010E028E030E046E150E068E070E085E170
:1003300090E00E944D1A81110E94C1021F910F91FD
:10034000089555985D982098289808958230B8F4BB
:100350006830A8F4453098F450E095E0699F400D6E
:10036000511D1124FA0198E2899FE00DF11D11241D
:10037000EE0FFF1FE455FF4F85919491089581E0A2
:1003800090E008950E94A60108959C013A952115D8
:100390003F4150F5FC01EE27F170BC0166277270F9
:1003A000AC01442754709C012227387094FF0EC082
:1003B00080E1EF2B09F480E0672B09F08062452B88
:1003C00009F08064232B89F08068089581E0EF2B89
:1003D00009F480E0672B09F08260452B09F0846006
:1003E000232B19F08860089580E00895CF93DF9360
:1003F000EB010E94C501FE010995DF91CF9108959F
:10040000CF93DF93EC01805E9109089720F063E0C1
:1004100077E0209711F465EC74E0CE010E94F601BC
:100420008C2F0E94B303DF91CF910895CF93DF9378
:10043000EC010E944A04CE01805E9109089720F0E9
:100440006AE077E0209711F46CEC74E0CE010E9432
:10045000F601DF91CF9108950F931F93CF93DF9310
:100460008C01EB010E940002209741F4C8010E9418
:100470001602DF91CF911F910F9108958FE99FE0B0
:100480000197F1F700C000002197EECF70E060E027
:100490008933910511F460E570E00E942C02089503
:1004A00081E008950E945002089581E008950E941D
:1004B000500208950E945702089508950E945D0217
:1004C0000895A6E0B0E0E7E6F2E00C949E254983AB
:1004D0005A839E833091B10189819A8131111AC06A
:1004E0003E81332399F0222389F00E947608182F49
:1004F000682F89819A810E94520869817A81812FAF
:100500000E94670F2696E3E00C94BA250E946408C7
:10051000182FF3CF0E94760869817A81F1CFFC0110
:10052000262F4081518162817381848195810E944F
:1005300061020895CF93DF93EC0161E00E948F0286
:10054000BE010E945202DF91CF910895CF93DF93B5
:10055000EC0160E00E948F02BE010E945E02DF910A
:10056000CF91089508950E9427070E94B2022FEFAD
:1005700084E39CE0215080409040E1F700C00000FF
:1005800008950E94B3020E94091D08950E94B302BB
:100590000E941A1D08950F931F93CF93DF938C0130
:1005A00061E00E948F02EC01B8010E945A028111A1
:1005B00006C080E0DF91CF911F910F910895B8019F
:1005C000CE010E948D198823A1F3B801CE010E94AB
:1005D000B81A882371F3B801CE010E943B17882313
:1005E00041F3B801CE010E946319882311F3F80189
:1005F0008581882361F0C330FCE7DF07E9F058F418
:10060000C115ECE7DE07A9F0C130DC47B9F0C8013D
:100610000E945502CFCFCB358CE7D807A9F0CC3557
:10062000ECE7DE0771F0CA35DC4789F70E94AC0CB5
:10063000EECF0E94C102BDCF0E94B40C0E94C60240
:10064000B8CF0E94A20CE3CF0E94B00CE0CF0E9472
:100650001F1C0E944E0308950E9452030E94241CF6
:100660000895089581E008950895CF93DF93D82FDA
:100670000E943203C82F882319F08D2F0E94340363
:100680008C2FDF91CF9108950895CF93C82F0E94AA
:1006900031038C2F0E943503CF91089580E00E9492
:1006A000450308950E94011B0E9445030895CF93BE
:1006B0000E94011BC82F8091AC018C1779F0C09368
:1006C000AC010E94AE1C6093AD017093AE018093AB
:1006D000AF019093B0018C2F0E944503CF910895F4
:1006E000ADE0B0E0E6E7F3E00C949F25488759873A
:1006F0006A877B878C879D8791110E94DA0B1F8206
:1007000086E0FE013896DE01119601900D928A95E1
:10071000E1F78D8181110DC029813A814B815C8186
:100720006D817E818F810E940D0B2D96E2E00C94ED
:10073000BB25CE0101960E949A028111EDCFF5CF23
:10074000FC012481213021F4808191810E94A8083C
:100750000895662329F00E9424150E94F715089534
:100760000E947E15FACFCF93C82F8823C9F0823814
:10077000C9F40E94151B81FD13C089E30E94920BEE
:100780000E94130C2FEF87EE93E0215080409040A1
:10079000E1F700C0000089E30E949A0B0E94130C4D
:1007A000CF9108958338A1F40E94151B80FDF8CFE6
:1007B00083E50E94920B0E94130C2FEF81EE94E0D0
:1007C000215080409040E1F700C0000083E5E4CF75
:1007D0008438A1F40E94151B82FDE2CF87E40E94B9
:1007E000920B0E94130C2FEF81EE94E02150804079
:1007F0009040E1F700C0000087E4CECF8CEF8C0F73
:10080000813AB8F48C2F0E94A8188111C9CF6C2F9F
:1008100080910001909101010E948D1B882329F095
:100820008C2F0E949A0B0E94130C8C2F0E94920B0B
:10083000B5CF80E28C0F883048F4C77081E001C0EA
:10084000880FCA95EAF70E94BD0BA8CFEBE5EC0F25
:10085000E33040F4F0E0EE59FE4F808190E00E94DA
:10086000311B9ECFE8E5EC0FEB3150F4F0E0EE0FDA
:10087000FF1FE45DFE4F808191810E94561B90CF47
:1008800083E38C0F833108F08BCF61E08C2F0E94C3
:10089000A90386CF882309F456C0823879F40E94D0
:1008A000151B81FF50C089E30E94920B0E94130C1C
:1008B00089E30E949A0B0E94130C0895833859F41F
:1008C0000E94151B80FF3FC083E50E94920B0E948F
:1008D000130C83E5EECF843859F40E94151B82FF78
:1008E00032C087E40E94920B0E94130C87E4E1CF90
:1008F0009CEF980F913AE8F290E2980F983050F4FC
:10090000877091E001C0990F8A95EAF7892F0E94BC
:10091000C30BD1CF9BE5980F933028F490E080E093
:100920000E94311B089598E5980F9B3128F490E0C0
:1009300080E00E94561B089593E3980F933118F4BA
:1009400060E00E94A90308951F93CF93DF93182FAF
:10095000EB010E94B303209739F4812F0E944A04CF
:10096000DF91CF911F9108958FE99FE00197F1F7F3
:1009700000C000002197EFCF70E060E0893311F4F0
:1009800060E570E00E94A4040895882321F00E948D
:10099000BD0B0E94130C0895882321F00E94C30B05
:1009A0000E94130C0895B0E0A0E0E9EDF4E00C948F
:1009B00098256C01D62FC72FFC0115810681029561
:1009C0000F700E94B30BE82E8823E9F0E12E11236B
:1009D000D1F08C2F807F803451F080E28D0F8830F1
:1009E000F8F0011104C08C2F807E8032C9F0809114
:1009F0008F0282FF15C082E00E94760C0E94B30B2A
:100A000091E0E82EE926BC2EB2949FE0B922FBE0EB
:100A1000FB15B8F1EB2DF0E0EC5BF94D0C9489255A
:100A2000E12CF1CF0C2F0F70C07F11F00295007FE9
:100A3000112399F0002359F080E28D0F883010F0D7
:100A4000D11107C0802F0E94BD0B0E94130C8D2F67
:100A50005AC0802F0E94CD0BF8CF8D2F0E944A04E0
:100A6000002379F080E28D0F883010F0D11104C09E
:100A7000802F0E94C30B03C0802F0E94D30B0E94C3
:100A8000130CEB2DE850FF0B349720F40E94011B50
:100A90000E944503EE2089F00E94AF0B80FD0DC03F
:100AA000F60115820E94A90B0E94B007C6010E94A0
:100AB000E0060E94A90B0E94C007CDB7DEB7E9E0AF
:100AC0000C94B4252C2F2F70F22EC07FC03219F059
:100AD000F29480EFF822DD2341F0D130D1F11123DF
:100AE00009F444C00023F1F0B2CF80918F0282FD5F
:100AF00015C0112359F0FF2029F08F2D0E94BD0B46
:100B00000E94130C80E00E94B303BBCF80E00E94E0
:100B10004A04FF2009F4B5CF8F2DABCF112369F024
:100B2000011104C08F2D0E94C504ABCF013009F024
:100B3000A8CF8F2D0E94F10BA4CF0111A2CF8F2D32
:100B40000E94CC048F2D0E94FD0B8F2D0E94E10B83
:100B500098CF112321F0063008F093CFE3CF053072
:100B600008F08FCF8F2D0E94CC048BCF0023D1F3C0
:100B7000D93349F43FEF87EE93E031508040904005
:100B8000E1F700C000008D2F0E944A047ACF8C2F1D
:100B900086958695837069F0813009F072CF8D2F2C
:100BA0009C2F9370111102C080E090E00E94561BB0
:100BB00068CF8D2F9C2F9370111102C080E090E0C0
:100BC0000E94311B5ECF612F8D2F0E94A90359CF48
:100BD0008C2F8370A1F5111154CF4D2F429546955E
:100BE0004770440F440F2D2F2F7030E0042E02C0A9
:100BF000220F331F0A94E2F790E080E0D4FF09C08F
:100C00008FE090E002C0880F991F4A95E2F7809527
:100C10009095C695C695C370822B932BC23049F030
:100C200058F4C13019F00E9480072BCF0E9477073B
:100C300028CF0E94890725CF0E94740722CF86956E
:100C4000112311F08C2F8170882309F41ACF4D2FB6
:100C5000429546954770440F440F2D2F2F7030E07A
:100C6000042E02C0220F331F0A94E2F790E080E0C6
:100C7000D4FF09C08FE090E002C0880F991F4A9509
:100C8000E2F780959095C695C695C370822B932BFD
:100C9000C23049F058F4C13019F00E94EB07F1CE90
:100CA0000E94E207EECE0E94F407EBCE0E94980766
:100CB000E8CECF70112329F08C2F0E94B0078D2F22
:100CC00032CF8D2F0E94CC048C2F0E94C007D9CE2A
:100CD000D23F41F160F4D03FB9F0D13F81F0112310
:100CE00009F446C00111B3CE8C2F8F711FC0D33FC2
:100CF00001F1D43FA1F780918F0282FD24C08C2F97
:100D00008F71112311F312C0112341F0053008F047
:100D1000B8CE8C2F8F710E94D207B3CE063008F068
:100D2000B0CEF7CF8C2F8F711111CFCF0E94B007AB
:100D3000A8CE112329F08C2F8F710E94A407A1CE79
:100D40000E949F079ECE112349F0CF718C2F0E94E5
:100D5000B00763E08C2F0E94580C93CE81E00E9474
:100D6000760C023008F48DCE82E00E94760C89CE9B
:100D7000002359F0D93309F006CFEFEFF7EE23E067
:100D8000E150F0402040E1F7FCCE8C2F8F719DCFD9
:100D90000F931F93CF93DF93EC01688179818D814D
:100DA0000E94B3088C010E94FD070E947307B801DE
:100DB000CE010E94D304DF91CF911F910F9108952E
:100DC000CF93DF93EC018C81882399F0CE010E94B0
:100DD000CB02811111C00E94B30B882351F08D8189
:100DE000882339F080918F0282FF03C082E00E9445
:100DF000760CDF91CF910895CE010E94C806CE01F6
:100E00000E94A602F6CF882321F00E94CD0B0E94FB
:100E1000130C0895882321F00E94D30B0E94130C19
:100E2000089590E080E00E94311B90E080E00E94F5
:100E3000561B0E94DA0B0E94130C0E9413160E948C
:100E4000F71508950E94A20B0E94110708950E94B1
:100E5000CA0B0E942207089592959F70963091F0D8
:100E600058F4925F9F70923058F4803F19F030F43C
:100E7000883E30F481E008959A5FF4CF843FD1F347
:100E800080E00895883EB0F3813FD1F7F3CFFC01B5
:100E90002481222339F0808191810E94A8080E9438
:100EA0002C07089580E00895A6E0B0E0EAE5F7E0B9
:100EB0000C949F252696E2E00C94BB25A7E0B0E0B9
:100EC000E4E6F7E00C949F252796E2E00C94BB251E
:100ED00008950E94680708950E9469079093C901C8
:100EE0008093C801089508950E946C070895209189
:100EF000C8013091C901822B932B0E946C07089581
:100F00002091C8013091C901822393230E946C076C
:100F100008952091C8013091C901822793270E942A
:100F20006C0708950E94680708950E94920708952B
:100F30000E9495079093C7018093C601089590E0A1
:100F400080E00E949807089521E030E0A90102C0E6
:100F5000440F551F8A95E2F7CA010E949807089529
:100F600021E030E002C0220F331F8A95E2F7809122
:100F7000C6019091C701822B932B0E949807089578
:100F800021E030E002C0220F331F8A95E2F720955E
:100F900030958091C6019091C701822393230E94CE
:100FA0009807089521E030E002C0220F331F8A9590
:100FB000E2F78091C6019091C701822793270E9492
:100FC000980708952091C6013091C701822B932B79
:100FD0000E94980708952091C6013091C70182238D
:100FE00093230E94980708952091C6013091C7016C
:100FF000822793270E94980708950895262F277027
:1010000091E001C0990F2A95EAF723E0769567955C
:101010002A95E1F7660F771F660F771FFA01E60F33
:10102000F71F50E040E0682F70E08191DF011197D9
:101030009B01042E02C0369527950A94E2F7217091
:1010400021952827292328272C934F5F5F4F443071
:10105000510559F70895A82FA77023E09695879515
:101060002A95E1F7880F991F880F991FFB01E80F58
:10107000F91F50E040E080E0219130E00A2E02C0EC
:10108000369527950A94E2F721703327042E01C084
:10109000220F0A94EAF7822B4F5F5F4F44305105CD
:1010A00059F70895262F983070F4853060F4682F32
:1010B00070E085E0989F600D711D112442EB51E0B6
:1010C000822F0E94FE070895292F983068F48530FA
:1010D00058F490E062EB71E035E0239F800D911DA4
:1010E00011240E942B08089580E00895B0E0A0E04C
:1010F000ECE7F8E00C9498257C010091C601109172
:10110000C7018091C8019091C901082B192BCFE02C
:10111000D0E0CC24C394D12CBC2EC6010C2E02C02E
:10112000880F991F0A94E2F780239123892B49F4B1
:10113000219790F7B12C8B2DCDB7DEB7E9E00C9459
:10114000B425B7018C2F0E94730F019789F3F3CF59
:10115000CF93DF93EC010E947608BE010E94730FCB
:10116000DF91CF9108951F93CF93DF93EB0190917F
:10117000B101992339F0CB010E94A808DF91CF91EA
:101180001F910895882369F0CB010E947608182FDB
:10119000682FCE010E945208BE01812F0E94730F5A
:1011A000EDCFCB010E946408182FF6CF1F93CF9389
:1011B000DF93C091CA0117E08091CB018C1304C06A
:1011C000DF91CF911F910895D0E01C9FF0011D9FEA
:1011D000F00D1124E453FE4F20813181428153816F
:1011E0006481758186810E945E072196C770E4CF75
:1011F00020910402309105024091060250910702AD
:10120000609108027091090280910A020E945E07B3
:101210000895CF93DF9380910A02807F09F04DC03B
:1012200080910902882309F448C0E091CA015091D5
:10123000CB01C0910502D091040260910602709129
:10124000070247E05E17C9F18E2F90E0E49FF0019E
:101250001124E453FE4F2481222391F1489FF00191
:10126000499FF00D1124DF01A453BE4F11962C911C
:1012700011972C1325C02C912D1322C015962C915B
:10128000159721111DC012962D913C91261B370BED
:10129000283C3105A8F480910A028F708061809308
:1012A0000A02EE52FE4F80818F708061808384E05D
:1012B00092E00E94E0060E94D608DF91CF91089547
:1012C000FC013196E770BECF482F2091CA01909162
:1012D000CB0157E0291302C080E0089530E0529F0F
:1012E000F001539FF00D1124E453FE4F81816813E8
:1012F00006C08081481303C085818111EECF2F5F26
:101300003F4F2770E7CFA4E1B0E0E9E8F9E00C94A3
:1013100095258C0186E0F801DE011F9601900D9263
:101320008A95E1F7F8018481E58094E0A92E92E0A6
:10133000B92E9091080291111FC08823D1F0EE20A0
:10134000A9F0C8010E944707F82E882379F087E0AA
:10135000F801D50101900D928A95E1F7C5010E942F
:10136000A0030E9409090E94F8085FC0C8010E94FA
:10137000E006FF24F39459C0C080D180828093801E
:10138000F09009022091060230910702A401421B4D
:10139000530BFF2009F4F9C0483C510508F0A7C0E1
:1013A000882309F442C09091050280910A02282FF7
:1013B000207F09F05CC09D1116C090910402C912F3
:1013C00012C0E1104EC08F70806180930A020E94AB
:1013D000F80884E092E00E94E00680910A02F80199
:1013E0008683F12C22C0E1103CC06D2D8C2D0E9413
:1013F00064096D2D8C2D0E946409E82E8111F1CFB6
:10140000CF86D88A8F8598890E94A808292F22958F
:101410002F70243078F49F702230A8F09923B9F00F
:10142000F8019681907F99F4FE2C8F2D6496ECE064
:101430000C94B1252A5F2F70223068F0C8010E94F9
:10144000E006EF2CF1CF992311F0882369F3805E39
:10145000883050F3F3CF803F38F3815F833070F7EB
:10146000E3CF80910A02816080930A02BACF9D1176
:1014700013C090910402C9120FC0E1100DC0868301
:10148000C8010E94E00687E0F801A4E0B2E0019004
:101490000D928A95E1F767CFC8010E94470788231C
:1014A00009F464CFEE2009F461CF80910A02803202
:1014B00088F02091040230910502398728879B86A5
:1014C0008A86909108029C871D868E87CE01089699
:1014D0000E94E00687E0F801A4E0B2E001900D92DE
:1014E0008A95E1F70E9409090E94F80842CF90917D
:1014F0000A02292F207FA1F4682D9A8A898AA601E1
:101500007A899E2D0E94540784E092E00E94E006B2
:1015100087E0F50111928A95E9F70E94F80861CFFA
:10152000882309F482CF809105028D1110C080912B
:101530000402C8120CC0E1100AC09683C8010E94C0
:10154000E00687E0F50111928A95E9F76ECFC801B0
:101550000E944707882309F409CFEE2009F406CF3B
:1015600080910A02803208F4B5CF209104023091B4
:1015700005023A8329839C828B82909108029D8385
:101580001E828F83CE010196A3CF483C5105B8F54A
:10159000882309F4EECEFE2CEE2009F4E7CE8091EC
:1015A00005028D111EC080910402C8121AC08091DC
:1015B0000A0280FD0DC0982F907F51F08683903FE6
:1015C00009F45ECF982F907F905F8F70892B57CF53
:1015D00087E0F801A4E0B2E001900D928A95E1F76E
:1015E00024CFC8010E944707811174CF80910A025D
:1015F000816080930A02C8010E94E00616CF682D20
:101600009A8A898AA6017A899E2D0E94540787E0CA
:10161000F50111928A95E9F7A6CEAEE0B0E0E3E1DC
:10162000FBE00C949E25288739874A875B876C8767
:101630007D878E87CE0108960E9483098823B1F0AA
:101640006C85662341F0288539854A855B857D85D3
:101650008E850E945E0717E08091CA019091CB01B0
:1016600089133DC02E96E3E00C94BA2587E0FE0175
:101670003896DE01119601900D928A95E1F78C85DE
:10168000882349F32091CB0130E0C901019687708E
:1016900099274091CA014817190699F097E0929F3F
:1016A000D001939FB00D1124A453BE4FFE0131967B
:1016B00001900D929A95E1F78093CB010E94D60894
:1016C000CACF0E9427071092CB011092CA0187E06F
:1016D000E4E0F2E0DF011D928A95E9F7BCCF819F3B
:1016E000C001112484539E4F0E948309882309F46A
:1016F000B9CFE091CA011E9FF0011124E453FE4FBF
:1017000020813181428153816481758186810E946B
:101710005E078091CA0190E00196877099278093B7
:10172000CA019ACF682F80910001909101010E9417
:10173000C31B0895682F80910001909101010E94C0
:10174000C61B089580910001909101010E94C91B60
:1017500008958091130286958695869508958091C7
:1017600013028770089590911302977081E009F435
:1017700080E0089580911F02089590911F02892BA7
:1017800080931F020895809590911F029823909353
:101790001F02089510921F02089590911E02892B36
:1017A00080931E020895809590911E029823909335
:1017B0001E02089510921E02089508950E94DD0BE6
:1017C000089590911402292F282331F080958923C0
:1017D000809314020E94DE0B089508950E94ED0B81
:1017E000089590911502292F2823281729F0982B66
:1017F000909315020E94EE0B089590911502292FE7
:10180000282331F080958923809315020E94EE0BE6
:10181000089580911502882329F01092150280E026
:101820000E94EE0B0895CF93DF93E0910001F091B9
:10183000010180911F028083E0910001F09101017C
:10184000808190911E02892B8083909115029923AB
:1018500081F0E0910001F09101018081892B80836A
:1018600080910001909101010E947B1B81110E94D7
:10187000090CC0910001D091010148E050E06BE0FB
:1018800072E0CE010E94DA25892B59F088E0FE0132
:10189000ABE0B2E001900D928A95E1F7CE010E9493
:1018A000181BDF91CF91089508950E94540C08955C
:1018B00090918F0292FF11C098E0899F90011124AE
:1018C000622B609313020E94B007809113028695E9
:1018D000869586950E94550C08950E94B00708953C
:1018E0001092130280E00E94550C0895909113020B
:1018F0008095892380931302282F277069F4891714
:1019000059F090918F0292FF07C086958695869533
:101910000E94C0070E94700C089590918F0292FB64
:10192000222720F9281769F080FB92F990938F0203
:1019300080918E0290918F020E94D50C82E00E94CD
:10194000760C089580918F0282FB882780F991E0C0
:1019500089270E948D0C089581E00E948D0C0895C6
:1019600080E00E948D0C08956FEF7FEF90E080E0A3
:101970000E942C26089590E080E00E94F82521E046
:10198000863E9E4F09F020E0822F089582E090E08D
:101990000E94F025089583E090E00E94F0250895CC
:1019A00084E090E00E94F8250895BC0184E090E076
:1019B0000E942C260895AB01BC018FE090E00E94AC
:1019C00020260895AB01BC0183E190E00E9420260F
:1019D000089560E070E0CB010E94E20C089560E0A1
:1019E00070E0CB010E94DB0C0E94E90C0895A8E096
:1019F000B0E0EDEFFCE00C949F2566EE7EEF90E00A
:101A000080E00E942C2660E082E090E00E940E269A
:101A100060E083E090E00E940E261092C9011092CF
:101A2000C80160E074E184E090E00E942C2660E050
:101A300086E090E00E940E266FEF87E090E00E9423
:101A40000E2640E050E0BA0188E090E00E94202697
:101A500060E084E290E00E940E2660E087E190E082
:101A60000E940E2660E08CE090E00E940E2660E06E
:101A70008DE090E00E940E2619821A821B821C8241
:101A80001D821E821F82188648E050E068E170E0E7
:101A9000CE0101960E94FE2540E050E0BA0180E2AE
:101AA00090E00E9420260E94EF0C2896E2E00C9421
:101AB000BB250E94F70C08958EE090E00E94F0256F
:101AC00091E0811101C090E0892F0895682F8EE088
:101AD00090E00E940E260895A6E0B0E0E2E7FDE067
:101AE0000C949D250E94A21C8C0180912002909153
:101AF00021028017910781F019821A820E94A21C8C
:101B0000682F49815A81792F80E090E00E9470030C
:101B100010932102009320022696E4E00C94B9254C
:101B20000E948F1060932E0270932F0280933002D8
:101B30009093310260932A0270932B0280932C02BF
:101B400090932D020895089508950E94A30D08957D
:101B500008950E94A80D089581E0089589EA90E112
:101B60000E949A140E94A40D0E94A50D08950E943F
:101B70007E120895089508950E94BA0D0E94BB0D2B
:101B800008950E94AC100E94440308950E94991C7D
:101B90000E9469100E9496120E94DC110E94C10DE1
:101BA0000E9423170E94A6120E94A90D08950E9468
:101BB0007E1281110E94021A0895A6E0B0E0E3EEC1
:101BC000FDE00C9496250E94AC0D81110CC00E9482
:101BD0006C0D0E94D70D0E9435160E945703269661
:101BE000EBE00C94B2250E94FF1182E2A82E82E065
:101BF000B82E750110E0F70101917F01812F0E943D
:101C0000D1101F5F183009F441C00817A1F380916B
:101C1000320281FD0E94D7100E94B70DC82E10E03D
:101C200099249394812F0E94D110082FF50181915E
:101C30005F01081729F1D02ED826F12CEE24E39469
:101C40008D2D8E21A9F0CC2099F0F9821A830E9463
:101C5000A21C9C838B839D8291E0802F8E2109F4AE
:101C600090E049815A816B817C818D810E94700353
:101C7000F394EE0CF5E0FF12E3CFF501319700830A
:101C80001F5F183079F60E94900DA3CF0813BFCFC5
:101C90009ECF1F93CF93DF930E94780FEC01C11565
:101CA00080E5D807F0F5C11580E4D80708F09CC09E
:101CB000C03ED10520F5CD3CD10508F082C0C83A20
:101CC000D10578F4C53AD10508F073C0C130D1050B
:101CD00019F1209709F1C430D105F0F4D0E0C0E04B
:101CE0001BC0C33CD105D0F7C85AD0E0CC0FDD1FD4
:101CF000CB59DE4F0990D881C02DD4640DC0C115D9
:101D000080E2D80708F0D1C0C11581E0D80708F0FB
:101D10005AC0C83ED10510F7CE01DF91CF911F9177
:101D20000895C03682E5D80718F5C03482E5D80793
:101D300008F06BC0C03282E5D80708F05FC0C1155B
:101D400082E5D80708F497C02C2F2695269580E2C7
:101D5000289F900111248C2F8370C1E0D0E002C035
:101D6000CC0FDD1F8A95E2F7C22BD32BDD68D4CFD1
:101D7000C03A82E5D80760F4C03882E5D80708F495
:101D800059C0CF71D0E0DC2FCC27C46FD06AC4CF4C
:101D9000C03C82E5D80708F462C0C03E82E5D8079F
:101DA00008F09CCFDC2FCC27CC27DF71C06FD06A26
:101DB000B3CFC55AD0E0C556DE4FC881D0E0D0645D
:101DC000ABCFD065A9CF8D2F0E941A10182FCE014E
:101DD00099270E94780FC12FD0E0DC2FCC27CC2789
:101DE000DF71C82BD92B98CFCE0199270E94780F8D
:101DF000CC27DF70C82BD92BD06A8ECFCF71D0E023
:101E0000DC2FCC27C16FD06A87CF2C2F2695269543
:101E1000277080E2289F900111248C2F8370C1E0ED
:101E2000D0E002C0CC0FDD1F8A95E2F7C22BD32B86
:101E3000DC6872CF2C2F26952695277080E2289F8C
:101E4000900111248C2F8370C1E0D0E002C0CC0F30
:101E5000DD1F8A95E2F7C22BD32BDA685DCF8C2F7A
:101E60008F710E941A10C82FD0E0DC2FCC27CC270E
:101E7000DF71D06251CF8C2F8F710E941A1055E004
:101E8000D695C7955A95E1F7CF70D0E0DC2FCC27D7
:101E9000282F30E084FF05C044E0220F331F4A950D
:101EA000E1F7C22BD32BD06937CF8D2F8F710E94D2
:101EB0001A10182FCE0199270E94780FC12FD0E059
:101EC000DC2FCC27CC27DF71C82BD92BD2CF462FC4
:101ED000783030F4653020F4672F0E94C2010895F5
:101EE00090E080E008950E94670F0E94490E0895D7
:101EF00082389105B9F1B0F48133910509F47DC0C0
:101F000048F48932910509F46DC08A32910509F4CB
:101F10007BC008958533910509F45FC0893391052D
:101F200009F10895833E9105D9F138F4803E910579
:101F300029F1823E910579F10895863E9105D9F106
:101F4000873E910509F43EC0843E910541F52091FC
:101F50008F0221FF24C080918E0284FD19C087EE7C
:101F600090E0089520918E02237009F05AC02091CC
:101F70008F0223FF14C089E290E0089520918E0221
:101F800020FD38C030918F0230FF09C024FF43C0CC
:101F900090E080E0089520918E0222FDF7CF089511
:101FA00020918E0222FD3AC030918F0230FD39C05F
:101FB00024FFF5CFEDCF20918E0223FFF0CF24FD3B
:101FC000E7CFCDCF20918E0223FD2EC030918F021E
:101FD00031FFEECF84EE90E0089520918E0225FF30
:101FE000DECFC9CF20918E0225FD21C020918F0226
:101FF00023FFD5CF89E390E0D2CF20918E0226FF38
:10200000CECF8AE290E0089520918E0226FFC7CFBE
:1020100081E390E0089583EE90E0089582EE90E0F1
:10202000089580EE90E0089586EE90E0089585E3AF
:1020300090E0089590918E0292FF10C041E0282F09
:102040002471243009F040E031E0282F2871283035
:1020500009F030E0431711F02CE0822793FF10C005
:1020600041E0282F2471243109F040E031E0282F8D
:102070002871283109F030E0431711F02CE0822755
:1020800030918F0230FF10C051E0282F2171213094
:1020900009F050E041E0282F2871283009F040E095
:1020A000541711F029E0822731FF10C041E0282F9A
:1020B0002171213109F040E031E0282F28712831C9
:1020C00009F030E0431711F029E0822794FD877E64
:1020D000089510928A0210928B0210928C02109234
:1020E0008D020895CF92DF92EF92FF926B017C01F7
:1020F0000E947E1281110EC00E94AE1CC61AD70A21
:10210000E80AF90AC0928A02D0928B02E0928C020D
:10211000F0928D02FF90EF90DF90CF9008950F9393
:102120001F930E947E12882329F00E94AE1C1F91EB
:102130000F9108950E94AE1C00918A0210918B02AB
:1021400020918C0230918D02600F711F821F931FAE
:10215000EECF80E0089508950E94BB0C811102C06B
:102160000E94590D0E94C60C809332020E94D00C2E
:1021700090938F0280938E020E94AB100E94CB0C32
:1021800090E00E9474078091C6019091C7010E945F
:10219000950708950E94A101089508950E94CD1009
:1021A0000895E82FF0E0E756FD4F808108950895E7
:1021B00080EA8A95F1F7089500C008950E94D8102A
:1021C000089508950E94E1100895EF92FF921F93E1
:1021D000CF93DF9300D000D0CDB7DEB70E947E1240
:1021E000182F6091A102882309F447C019821A822E
:1021F0001B821C82862F90E09E012F5F3F4F79014A
:10220000B90187569D4F0E94B4128823E9F080914E
:10221000900290E044E050E0B70187569D4F0E9445
:10222000DA2521E020933302892BC9F410E00E94C3
:10223000CE10812F0F900F900F900F90DF91CF91C4
:102240001F91FF90EF90089580913302882371F3DE
:1022500084E0F70111928A95E9F710923302E09138
:102260009002F0E0E756FD4F89819A81AB81BC81F5
:1022700080839183A283B383DACF70E067567D4F6A
:102280008091900290E087569D4F0E943B130E94E0
:10229000E210CFCFF894E82FE295EF70F0E031A193
:1022A000282F2F7081E090E001C0880F2A95EAF76F
:1022B000982F9095932391A392A1892B82A3789430
:1022C0000895CF93DF9382E30E944A1186E30E9430
:1022D0004A1184E30E944A1185E30E944A11CEE923
:1022E000D1E089918F3F11F00E944A1181E0C33AF9
:1022F000D807B9F7DF91CF910895B0E0A0E0E3E807
:10230000F1E10C949925EC01D62E062F10E0C801BE
:102310008D559E4F7C01FC0180818F3F09F445C0A3
:10232000F894E82FE295EF70F0E091A18F7021E032
:1023300030E001C0220F8A95EAF7892F822B81A312
:1023400082A12095282322A378940E94DC10EEE934
:10235000F1E043EA51E031E0C12C21912F3F51F1EE
:10236000A22FA295AF70B0E090968C9190E02F7064
:1023700002C0959587952A95E2F780FD1BC0832FB3
:10238000C82A330F4E175F0741F7F70180818F3F4F
:1023900011F00E944A1161E0C11001C060E08D2D72
:1023A0000E94DE10C00FD11FC882CDB7DEB7E8E0B3
:1023B0000C94B52580E0E4CF809102018091020168
:1023C00094E0811190E09093A10284E0891B8093B6
:1023D00090020E94611188E0E9E9F2E0DF01982FA4
:1023E0001D929A95E9F7E1E9F2E0DF011D928A95E5
:1023F000E9F784E00E943D120E94CA100895A8E007
:10240000B0E0E5E0F2E10C949C258E010F5F1F4FD8
:1024100088E0F80111928A95E9F7F12C6F2DC80137
:102420000E947D11F394F4E0FF12F8CF48E050E0F1
:10243000B80181E992E00E94DA2521E0009709F4D1
:1024400020E0892B41F088E0F801A1E9B2E0019099
:102450000D928A95E1F76091A10270E067567D4F79
:1024600044E081E992E00E943E12182F0E94E5109C
:10247000812B2896E5E00C94B8250895CF92DF9241
:10248000EF92FF920F931F93CF936C017B01042F68
:10249000222349F081E0809336020E94A21C90938F
:1024A000350280933402C0913602C1110AC0C0E0E7
:1024B0008C2FCF911F910F91FF90EF90DF90CF90D5
:1024C000089580913402909135020E94BA1C0597BC
:1024D00070F310E0A801B601C7010E94DA25892B2C
:1024E00041F0A801B601C7010E94E725109236020B
:1024F000DFCFC0E0FBCF0E945C0D089580913902D0
:10250000811107C00E946825882351F081E08093E3
:10251000390281E090913902913009F080E008950C
:1025200082E0809339020E946325F3CF0E94BB0CA6
:10253000811102C00E94590D0E947B1280930201FA
:102540000E947E1281110E94EA1208950E947E125A
:10255000811102C00E94ED12089581E090913A022B
:102560009A3008F080E008950F931F93CF93DF9384
:10257000EC018B0180913A028A30B8F4B801CE01A7
:102580000E943813C82F811122C080913A028F3FD8
:10259000B9F40E94A21C90933802809337028C2FCA
:1025A000DF91CF911F910F91089580913702909103
:1025B00038020E94BA1C843F914000F7C0E0EFCF80
:1025C0008F5F80933A028A3020F7C1E0E8CF109203
:1025D0003A02E5CF0E947D1D08950E94801D089556
:1025E000B0E0A0E0E6EFF2E10C949A257901C82F63
:1025F000880FDD0B41155105A9F0FE0193E0EE0FA8
:10260000FF1F9A95E1F7ED5FFE4F81819281855C16
:102610009D4F208130E04217530708F49A01A90129
:102620000E94E725CE010E94691ED82E8823D1F092
:1026300001151105B9F083E0CC0FDD1F8A95E1F794
:10264000FE01ED5FFE4F438150E00417150708F4CB
:10265000A801CD5FDE4F6C817D81655C7D4FC70138
:102660000E94E7258D2DCDB7DEB7E7E00C94B625A7
:102670000E94321408950E9449140895A4E0B0E025
:10268000E4E4F3E10C949D256091500270915102B5
:1026900080915202909153020E94C91C11E064364D
:1026A00071058105910518F10E948F106E5F7F4FB3
:1026B0008F4F9F4F69837A838B839C8310E000E068
:1026C00030E020E044E050E0BE016F5F7F4F82E0E9
:1026D0000E94F012182F882351F00E94AE1C6093C4
:1026E0005002709351028093520290935302812FB3
:1026F0002496E4E00C94B925B0E0A0E0E2E8F3E130
:102700000C9497257C015B016A010E94AD1201E0E7
:1027100010E0882311F00AE010E0C1E0D0E0B5013C
:10272000C701F6010995811104C021960C171D07F8
:102730002CF4CDB7DEB7EAE00C94B325CC9F900122
:10274000CD9F300D300D112490E080E045E34A9597
:10275000F1F70000019682179307C1F7E0CFA5E0DB
:10276000B0E0E5EBF3E10C9497255B01E090A70165
:10277000F090A80101E010E09E012B5F3F4F50E078
:1027800040E070E060E080E00E94F012182F8823A3
:1027900009F44BC067018FEFC81AD80A60914C0248
:1027A00070914D0280914E0290914F020E94C91C7F
:1027B000643671058105910580F104E010E09E0109
:1027C0002F5F3F4F50E040E070E060E081E00E940A
:1027D000F012F82E64E070E0C6010E94241711E0A8
:1027E0009D81981310E01F2159F10E94AE1C609347
:1027F0004C0270934D0280934E0290934F02898158
:102800009A81AB81BC818093480290934902A09346
:102810004A02B0934B0211E013C064E070E0C601BD
:102820000E9424179D818913C8CFF701818192816D
:10283000A381B48189839A83AB83BC831111DFCFD9
:102840008091480290914902A0914A02B0914B02B6
:10285000F50180839183A283B383812F2596EAE0DB
:102860000C94B3250F931F93CF93DF93EC018B014F
:102870004FEA53E10E947C13882331F04EE353E189
:10288000B801CE010E947C13DF91CF911F910F916F
:1028900008950F931F93CF93DF93C091A701D09119
:1028A000A801CE01019624E0FB01DC0101900D920C
:1028B0002A95E1F764E070E00E94241788836D8117
:1028C0007E818F819885009144021091450220916C
:1028D000460230914702601771078207930751F053
:1028E000609344027093450280934602909347029E
:1028F0000E947210DF91CF911F910F9108950E9455
:1029000039200E94C60D0E94462008950E944B2047
:102910000E94DD0D0E94652008950E943B1C0E94CC
:102920001F200E94AE0D0E947F140E9486140E94F8
:10293000BC0DFBCF9093AB018093AA010895282F83
:1029400035EB2303C001112497FF04C0805891097F
:10295000892F089580589F4FFBCF80915A0280FFA6
:102960000DC06091200170E0660F771F603871051F
:1029700070F56115710569F1862F089581FF07C013
:102980006091200184E0689FB0011124EFCF609135
:10299000200182FD0AC0809159028823A9F020916C
:1029A0001F0160912001821710F088E0ECCF869F14
:1029B000C001112433E0880F991F3A95E1F7622F87
:1029C00070E00E947525D2CF68E070E0D5CF8FE728
:1029D000089581E0089580915A0280FF0CC06091B3
:1029E0001C0170E075956795759567956115710582
:1029F00049F1862F089581FF06C060911C0170E0A7
:102A000075956795F3CF60911C0182FD0BC0909185
:102A100058029923A1F060911B0180911C01961727
:102A200038F0682F70E06038710500F38FE7089583
:102A3000899FC001112470E00E947525F4CF61E0E8
:102A400070E0D7CF81E008958D3C31F40E94AD1441
:102A5000819580935E0208958E3C19F40E94AD1416
:102A6000F8CF8F3C31F40E94AD14819580935D02C4
:102A70000895803D19F40E94AD14F8CF893D29F4E2
:102A80000E94EB1480935F0208958A3D21F40E9416
:102A9000EB148195F7CF8B3D31F40E94EB148195B7
:102AA0008093600208958C3D19F40E94EB14F8CFD6
:102AB0009FE2980F983070F4815D990B21E030E02F
:102AC00001C0220F8A95EAF780915C02822B8093E5
:102AD0005C0208958D3D31F480915A0281608093AB
:102AE0005A0208958E3D21F480915A028260F7CFF8
:102AF0008F3DB9F780915A028460F1CF40915D0219
:102B00008D3C59F480915E0287FF0DC010925E02E9
:102B100041110BC01092590208C08E3C81F4809183
:102B20005E0218169CF3442381F080915F0290911D
:102B30006002892B09F05AC01092580208958F3C08
:102B400049F447FFF0CF10925D0280915E0281113F
:102B5000ECCFE0CF803D19F41416ACF3E4CF9091A4
:102B60005F02893D29F41916F4F610925F02DBCF5B
:102B70008A3D19F497FFD7CFF8CF909160028B3D33
:102B800029F497FFD0CF10926002CDCF8C3D19F47D
:102B90001916CCF3C8CF9FE2980F983090F4815D5E
:102BA000990B21E030E0B90102C0660F771F8A95CA
:102BB000E2F7CB01809590915C02892380935C02BF
:102BC000B2CF8D3D31F480915A028E7F80935A02AC
:102BD000AACF8E3D21F480915A028D7FF7CF8F3D91
:102BE00009F0A1CF80915A028B7FF0CF08950E9407
:102BF000A21C9C0190915D0280915E02982B21F0B5
:102C0000309357022093560290915F0280916002A8
:102C1000982B21F030935502209354028BE592E0DB
:102C20000E94231B089586E0EBE5F2E0DF011D9290
:102C30008A95E9F7109259021092580210925A029E
:102C40000895FC01828181110EC0838181110BC026
:102C50008481811108C091E08581811101C090E0DB
:102C6000892F8170089581E0FCCFA6E0B0E0EBE30E
:102C7000F6E10C949E2586E0EBE5F2E0DE0111968C
:102C800001900D928A95E1F710925D0210925E021A
:102C900010925F02109260028B819C81892B89F0D7
:102CA00080915602909157020E94BA1CAC019091FB
:102CB00059029923C9F1809121018417150608F45E
:102CC00040C08D819E81892B91F08091540290911A
:102CD00055020E94BA1CAC0190915802992309F444
:102CE0006AC080911D018417150608F472C0BE01E8
:102CF0006F5F7F4F8BE592E00E94D01B811105C072
:102D00008BE592E00E94211681110E94F71586E062
:102D1000FE013196ABE5B2E001900D928A95E1F7A4
:102D20002696E3E00C94BA25209122018AE0289FA0
:102D3000900111242417350720F69F5F90935902C4
:102D400002C09F3FD1F71B81112359F00E94AD149F
:102D50009FEF11160CF491E0899F802D1124809330
:102D60005D021C81112359F00E94AD149FEF1116D2
:102D70000CF491E0899F802D112480935E02809154
:102D80005D02882309F49DCF10915E02112309F49E
:102D900098CF0E949F14882351F080935D02812F69
:102DA0000E949F14882329F080935E028ACF81E0DD
:102DB000F4CF81E0F9CF20911E018AE0289F900195
:102DC00011242417350708F092CF9F5F9093580283
:102DD00002C09F3FD1F71D81112359F00E94EB14CF
:102DE0009FEF11160CF491E0899F802D11248093A0
:102DF0005F021E81112359F00E94EB149FEF111600
:102E00000CF491E0899F802D1124809360028091C1
:102E10005F02882309F46BCF10916002112309F43B
:102E200066CF0E949F14882351F080935F02812F08
:102E30000E949F14882329F08093600258CF81E07C
:102E4000F4CF81E0F9CF0895FC01680F791F8FEF6F
:102E500091E36E177F0709F408952191822728E0F6
:102E600030E087FF06C0880F892721503109C9F754
:102E7000F0CF880FFACFCF93DF93EC01FB01858170
:102E8000882309F4D2C09E0130572332310508F05F
:102E9000B2C00E94D00C90938F0280938E02FE01EC
:102EA000E150F047E232F10520F4E05BF94D0C947B
:102EB000892580918E02816080938E0293C08091DB
:102EC0008F02886080938F028DC080918E02826015
:102ED000F3CF80918E028460EFCF80918E02886064
:102EE000EBCF80918F028160EDCF80918F02826065
:102EF000E9CF80918E028061DFCF80918E02806267
:102F0000DBCF80918E028064D7CF0E94270780910B
:102F10008E028068D1CF80918E028C60CDCF80915F
:102F20008F028360CFCF80918E028E7FC5CF80913C
:102F30008F02877FC7CF80918E028D7FBDCF80911A
:102F40008E028B7FB9CF80918E02877FB5CF809123
:102F50008F028E7FB7CF80918F028D7FB3CF80910C
:102F60008E028F7EA9CF80918E028F7DA5CF80911A
:102F70008E028F7BA1CF0E94270780918E028F77D0
:102F80009BCF80918E02837F97CF80918F028C7F21
:102F900099CF80918E0282FB992790F921E09227A8
:102FA00090FB82F990FB83F987CF80918F02982F55
:102FB000909591708E7F892B90FB81F983CF9091B2
:102FC0008E02892F8F7B96FF806476CF0E94270721
:102FD00090918E02892F97FB87F980586DCF81E001
:102FE0000E94660D80918E0290918F020E94D50CF6
:102FF0000E94270780E0DF91CF91089580E0F0CF15
:1030000090918E02892F8F7E94FF806155CF909191
:103010008E02892F8E7F90FF81604ECF90918F021C
:10302000892F877F93FF88604DCF81E0E4CF8B317C
:1030300009F465C040F58B3071F078F4863009F4FE
:1030400047C020F4853059F180E00895873009F4B5
:1030500048C08830C9F781E00895803109F45DC027
:1030600068F48E3089F790913202892F8B7F92FF1E
:1030700084608093320282FD4CC0EDCF863159F3DB
:10308000893149F3E1CF8A3201F160F48732B1F03E
:1030900020F48E31C8F28D514CC08932A9F60E94BD
:1030A000C102D9CF833440F48A3308F041C085335C
:1030B00029F0883381F2C8CF833431F681E090E083
:1030C0000E9474070E942707C6CF0E94590DC3CFE4
:1030D00080913202807F8093320281E0809364028B
:1030E000089590913202892F8E7F90FF81608093A6
:1030F000320280FDB0CF817F80933202ACCF9091BD
:103100003202892F8D7F91FF82608093320281FF8E
:10311000A2CF809132028160EFCF90913202892F4D
:10312000877F93FF88608093320283FDF2CF93CF35
:10313000895321E030E0A90102C0440F551F8A9550
:10314000E2F7CA01BDCF80E008950E94A318089558
:10315000CF93C82F809164028130B9F0882331F079
:103160008230A1F11092640280E00DC00E94BA0B7F
:103170008232D1F78C2F0E94A31881111BC08C2F93
:103180000E9417188170CF9108950E94BA0B823265
:1031900089F38C2F0E94A51881110AC0C43199F0BF
:1031A00060F4CB3029F0C03169F782E0809364028B
:1031B00081E0E8CF81E090E0E5CFC93221F0C8336B
:1031C000B9F380E0DFCF10926402FBCFC93209F47B
:1031D00040C0F0F4C431E9F1A8F481E0C73099F6B9
:1031E0008093220184E1809321018AE08093200171
:1031F0008EE180931F0188E080931C0188E2809318
:103200001B0104C082EE8C0F8A3070F181E0BBCFCD
:10321000C03509F450C0B8F48AE0CF34B9F7E09172
:103220006102F0916202309789F32081082E000C30
:10323000990B820F911D8F3F910509F00CF43FC04F
:103240008FEF8083E3CFC135C1F181E0C23539F31F
:103250009ACF809163028823C9F210926302109280
:10326000620210926102D2CFCD51C0936302C3308B
:10327000C9F048F4C13099F081E291E0C23051F0D8
:1032800010926302C3CFC53099F078F08BE191E0E2
:10329000C630B1F79093620280936102B7CF82E2A9
:1032A00091E0F8CF80E291E0F5CF8FE191E0F2CFAD
:1032B0008CE191E0EFCF86EFB2CF8FEFB0CF97FFE9
:1032C000C0CF1082A3CFCF93DF93EB0186319C4711
:1032D00011F50E94BA0B9D81992399F08A7A91E0A9
:1032E00009F490E090936502811109C089E20E947F
:1032F000920B0E94130C80E0DF91CF91089585E33B
:10330000F6CF80916502811104C089E20E949A0B78
:10331000F0CF85E3FBCF81E0EFCF0F931F93CF93E7
:10332000DF938C01FB01D581D11107C0C1E08C2F47
:10333000DF91CF911F910F9108950E94DE19C82F40
:103340008823B1F00E94F519811112C0C801905272
:103350008115904308F41127C8010E94E1198111D9
:1033600003C00E94D919E3CF0E940C1AC0E0DFCF3E
:1033700008351C47D9F60E94C019CD2FD8CF089523
:1033800080917302811114C00E94BF1981E0809363
:1033900073020E94A21C9093720280937102109299
:1033A0006602E7E6F2E08AE0DF011D928A95E9F71E
:1033B0000895109273020E9465010895809173022E
:1033C00008959C0190916602953068F4E92FF0E031
:1033D000EE0FFF1FE959FD4F318320839F5F9093CC
:1033E000660281E0089580E00895809171029091D5
:1033F00072020E94BA1C21E08D32914008F420E054
:10340000822F089580917302882329F00E94F51974
:1034100081110E94D91908950E94A21C90937202F2
:103420008093710208950F931F93E0916702F091CA
:103430006802E817F907E9F48091690290916A023D
:1034400086179707B1F480916B0290916C028417F4
:10345000950779F480916D0290916E02821793071F
:1034600041F481E020916F02309170022017310702
:1034700009F080E081701F910F9108950F931F93C1
:1034800010E000E030E020E050E040E070E060E07C
:103490000E94131A1F910F9108950F931F930E947A
:1034A000131A1F910F9108950F931F93CF93DF93DA
:1034B000C42FD22FFC0185818823C9F04093760266
:1034C0000E94A21C909375028093740280E28C0F7C
:1034D000883040F4C77081E001C0880FCA95EAF7D0
:1034E0000E94C504DF91CF911F910F910895109113
:1034F0007602141332C080917402909175020E947A
:10350000BA1C883C910548F5C0E2CD0F1D17B9F0F3
:1035100080E2810F883040F4177081E001C0880F8D
:103520001A95EAF70E94CC04C83048F481E09D2F38
:10353000977001C0880F9A95EAF70E94C504802F02
:103540000E94BC04C83070F6D77081E001C0880FBB
:10355000DA95EAF70E94CC04C5CF80E28C0F883060
:1035600008F6C77081E001C0880FCA95EAF7F2CF6C
:103570000F93DB0188519C4787309105A0F5FC0132
:10358000EE58F94D0C94892506E221EE41EE6AE1F0
:103590007CE7CD010E94541A80E00F91089507E264
:1035A00025EE45EE6BE17CE7F4CF06E221EE40EE3E
:1035B00068E17CE7EECF07E225EE44EE69E17CE7C7
:1035C000E8CF06E221EE42EE6CE17CE7E2CF07E2D3
:1035D00025EE46EE6DE17CE7DCCF08E221E045EE2A
:1035E0006EE17CE7D6CF15968C91882319F0109266
:1035F0007602D3CF81E0D1CF90937D0280937C027D
:1036000008950E947E12811103C08091770208956F
:10361000E0917C02F0917D02309729F00190F081D9
:10362000E02D0995089580E008950E94011B0895FA
:10363000E0917C02F0917D02309721F00280F381CD
:10364000E02D09950895E0917C02F0917D0230977C
:1036500039F022E0DC012C930480F581E02D0995FE
:103660000895A3E0B0E0E7E3FBE10C949F252091EF
:103670007A0230917B0228173907A1F090937B02E0
:1036800080937A02E0917C02F0917D02309751F0B4
:1036900023E029839B838A830680F781E02DCE0176
:1036A000019609952396E2E00C94BB25A3E0B0E0D7
:1036B000ECE5FBE10C949F25209178023091790292
:1036C00028173907A1F09093790280937802E0914E
:1036D0007C02F0917D02309751F024E029839B8396
:1036E0008A830680F781E02DCE0101960995239605
:1036F000E2E00C94BB259C012E5F3F4FAC01485F7C
:103700005F4F80E02417350709F40895F90191917E
:103710009F019923B9F38F5FF5CF662349F0FC0130
:10372000329608962191261729F0E817F907D1F764
:1037300080E0089581E008959C01FC0132969FEF9E
:1037400080E04191461751F09F3F19F4411101C0AB
:10375000982F8F5F8630A9F79F3F09F40895290FAE
:10376000311D97FD3A95F90162830895FC01329667
:1037700008962191261303C0DF0111971C92E817C8
:10378000F907B9F708950E949C1B08950E94B61B83
:103790000895029626E0FC0111922A95E9F7089512
:1037A000DC01FB0111969C9111978181981322C035
:1037B00012968C911297882319F0928189131AC05E
:1037C00013968C911397882319F09381891312C053
:1037D00015968C911597882319F0958189130AC045
:1037E00014969C91992321F081E02481291303C030
:1037F00080E001C081E08170089508950E94FD1B62
:103800000895811106C081E080937E020E94FE1B14
:10381000089582E0F9CF83E080937E020E94FE1B30
:1038200008950E94011C089581E080937E020E9409
:10383000FE1B08950E94141C0895089508950E9487
:103840001E1C0895089508950E941D1C0895CF938D
:103850000E94221C0E94FF110E94231CC0E08C2F9A
:103860000E94D110811105C0CF5FC830C1F7CF9140
:10387000089581E0FCCF85B7806885BF85B78068F3
:1038800085BF08951F921FB61F9211248F939F9397
:10389000AF93BF9380917F02811113C08091A202E8
:1038A0009091A302A091A402B091A5024196A11DFE
:1038B000B11D8093A2029093A302A093A402B0939F
:1038C000A502BF91AF919F918F911F901FBE1F9036
:1038D00018958091AA02843031F10E94270310923A
:1038E0007F0288E190E020E40FB6F894A8958093D9
:1038F00060000FBE2093600083B7817F846083BF28
:1039000083B7816083BF7894889583B78E7F83BFA8
:103910000FB6F894A895809160008861809360004C
:10392000109260000FBE08950E9427070E942C038A
:10393000089582E084BD93E095BD9AEF97BD809392
:103940006E0008952FB7F8948091A2029091A3027F
:10395000A091A402B091A5022FBF08952FB7F894AB
:103960006091A2027091A3028091A4029091A5029D
:103970002FBF08959C014FB7F8948091A2029091B7
:10398000A302A091A402B091A5024FBF821B930B8A
:103990000895CF92DF92EF92FF922FB7F894C090E4
:1039A000A202D090A302E090A402F090A5022FBF43
:1039B000A7019601261B370B480B590BCA01B90109
:1039C000FF90EF90DF90CF90089578941F921FB6EC
:1039D0001F9211248F939F93AF93BF938091A20264
:1039E0009091A302A091A402B091A5020196A11DFD
:1039F000B11D8093A2029093A302A093A402B0935E
:103A0000A502BF91AF919F918F911F901FBE1F90F4
:103A1000189587E797E7909301088093000888E15D
:103A20009AE00FB6F894A895809360000FBE90932B
:103A30006000FFCF88E19AE00FB6F894A8958093D4
:103A400060000FBE90936000FFCF8EE1489B02C0E4
:103A50008150E1F7489BFECF0895589880E28A95FF
:103A6000F1F7589A0895FC013BE03A95F1F798E098
:103A700020E080E031E040E14A95F1F7880F489B73
:103A800002C08160232742E04A95F1F7000040E13F
:103A90004A95F1F7915079F790E19A95F1F799B13C
:103AA00032E03A95F1F7000040E14A95F1F7917064
:103AB00092272081920F90830895A1E0B0E0E3E681
:103AC000FDE10C949B2519828C017C01E60EF11C12
:103AD0000E151F0541F481E09981911180E0219636
:103AE000E6E00C94B7250E94251DCE0101960E94A8
:103AF000331DF80181938F01EBCF509A589A0895A6
:103B00005098589AE89AE9E6F0E080818C7F8083AB
:103B100008956150770B91E001C0990F6A95EAF71B
:103B200020E031E0911108C0222391F0589A80E200
:103B30008A95F1F758980895492F482339F0589AF3
:103B4000232740E24A95F1F79695ECCF5898F9CFA4
:103B50005898EDCFFF920F931F93CF93DF93EC0113
:103B60008C01060F111DC017D10729F4CDB7DEB7A0
:103B7000E5E00C94B825F9900E942D1D68E08F2D8A
:103B80000E94891DF0CF1F920F920FB60F92112441
:103B90000F931F932F933F934F935F936F937F9355
:103BA0008F939F93AF93BF93EF93FF93CF93DF9345
:103BB0000F92CDB7DEB719820E94251DCE01019666
:103BC0000E94331D082F069506950695282F2295ED
:103BD0002570902F9570290F922F9370269526951A
:103BE000920F982797708981982B09F05CC0043058
:103BF00008F059C080E18A95F1F7589A509A82E00E
:103C00008A95F1F700C0589888E0089F8001112438
:103C1000D801AD5FBE4F1696ED91FC911797309786
:103C2000A9F06091A7017091A80114962D913C9183
:103C30001597260F371F11968D919C911297680F3B
:103C4000791F13964C9113978C910995F801ED5FAC
:103C5000FE4F6381662351F02091A7013091A801A6
:103C600084819581820F931F0E94AA1D0E942D1DA1
:103C700080E18A95F1F758985098589A80E18A9592
:103C8000F1F7F801ED5FFE4F6081662351F020915E
:103C9000A7013091A80181819281820F931F0E9418
:103CA0005D1D0E94251D0F90DF91CF91FF91EF9137
:103CB000BF91AF919F918F917F916F915F914F9144
:103CC0003F912F911F910F910F900FBE0F901F905A
:103CD00018950F931F93CF93DF93EC0104970CF08B
:103CE0004CC0F894509A589885E08A95F1F70000F6
:103CF0009C2F969595708C2F8570980F892F8370C7
:103D00009695969523E0CC0FDD1F2A95E1F7980F45
:103D10008E01092B0E942D1D00C068E0802F0E949B
:103D2000891D80E18A95F1F75098589A489B1EC0EA
:103D300087E090E048991CC0FE01ED5FFE4F638173
:103D40006623F9F02091A7013091A8018481958123
:103D5000820F931F0E945D1D811113C0509A589AC3
:103D60007894DF91CF911F910F91089500C0DECF1D
:103D7000019729F4509A589A789480E0F2CF00C0C5
:103D8000D9CF0E94251D80E28A95F1F75898509A64
:103D900080E18A95F1F7CD5FDE4F6881662351F0AF
:103DA0002091A7013091A80189819A81820F931FE8
:103DB0000E94AA1D0E942D1D789481E0D2CF80918F
:103DC000880208959B01BA019091AA029430E9F407
:103DD0008F708093E9009FEF8091E800915085FDFE
:103DE00006C085ED8A95F1F700009111F5CF80911D
:103DF000E80085FF0AC050E040E0C9010E94DC20D5
:103E00008091E8008E778093E800089543E050E0C9
:103E1000BC0182E00E94E21E089546E050E0BC0131
:103E200082E00E94E21E0895CF93DF93EC0148E008
:103E300050E0BC0181E00E94E21E88E0FE01A0E8A3
:103E4000B2E001900D928A95E1F7DF91CF9108954C
:103E50008091A902811109C00E946C220E94C9228E
:103E60008091E20084608093E20008951092A9029C
:103E700008950E94141C08956091A60281E06111CA
:103E800001C080E00E940B1C08959091AA0281E07D
:103E9000943009F080E06091A6020E94111C089500
:103EA00042E061EC81E00E94E82142E261EC82E0C4
:103EB0000E94E8219091AA0281E0943009F080E00C
:103EC0006091A6020E94011C08958091AC0283308B
:103ED00009F461C030F48130D1F1823009F49EC020
:103EE00008958A3009F48AC08B3009F46FC0893094
:103EF00009F050C08091AB02813209F04BC0809133
:103F0000AF029091B002029708F044C08091E8009F
:103F1000877F8093E8008091E80082FF37C090910E
:103F2000F3008091F200029731F48091F10081302A
:103F300011F0863021F48091F10080938802809105
:103F4000E8008B778093E8000E941C2223C08091B8
:103F5000AB02813AF9F48091E800877F8093E80012
:103F60008091AF029091B002892B61F468E080E803
:103F700092E070E00E942B218091E8008B77809383
:103F8000E800089560E090E080E0F3CF8091AA021D
:103F90008111C1CF08958091AB02813AD9F7809108
:103FA000AF029091B002892BA9F78091E800877F3A
:103FB0008093E8008091E80080FFFCCF80912B0186
:103FC0008093F1008091E8008E77BCCF8091AB02A6
:103FD000813201F78091AF029091B002892BD1F626
:103FE0008091E800877F8093E8000E941C228091E6
:103FF000AD0280932B010E94270708958091AB02A8
:10400000813241F68091E800877F8093E8000E942A
:104010001C228091AE028093890208958091AB02A8
:10402000813A09F0B7CF8091E800877F8093E8005C
:104030008091E80080FFFCCF80918902C1CF84B7D6
:10404000877F84BF0FB6F894A8958091600088613F
:1040500080936000109260000FBE80E890E00FB681
:10406000F89480936100909361000FBE0E941A1C27
:1040700008950E946C220E94C922E2EEF0E0808145
:104080008460808378940E944825089583E291E0BB
:104090000E94FC1A08958091AA02853031F4809123
:1040A000AA02853019F00E94941C08950E94691C90
:1040B0008091A802882399F30E94271C882379F312
:1040C0000E94C6200E942707EACF08959A014091D6
:1040D000B1025091B2020E946E200895492F5527D7
:1040E0004330510519F168F44130510509F444C0D9
:1040F0004230510509F445C090E080E050E040E0D6
:1041000025C04132510549F142325105A9F784E4F5
:1041100090E048E452E061157105C1F08BE790E052
:104120004DEC51E06130710589F0E6CF992781307F
:10413000910581F0009729F00297F1F6ECE4F1E0A7
:1041400002C0ECE7F1E0849190E0AF01F901518306
:1041500040830895EEE5F1E0F6CF89E090E042E992
:1041600051E06115710591F389E090E04BEA51E06F
:104170006130710559F3C0CF82E190E04BEB51E023
:10418000E5CF8BE390E040E851E0E0CF80E189BDEE
:1041900082E189BD09B400FEFDCF8091D8008F7DFA
:1041A0008093D8008091E00082608093E00080914D
:1041B000E00081FDFCCF0895AF92BF92CF92DF92D5
:1041C000FF920F931F93CF93DF936C01EB018A0152
:1041D0000E943B22F82E811123C00115110539F0F0
:1041E000F80180819181C81BD90BC80ED91EB12C52
:1041F000A12C2097A9F08091E80085FD22C0809134
:10420000E8008E778093E80001151105A1F0F80110
:1042100080819181A80EB91EB182A08285E0F82E1E
:104220008F2DDF91CF911F910F91FF90DF90CF9055
:10423000BF90AF9008950E943B228823D1F2F82EC0
:10424000EFCFF60181916F018093F1002197FFEF8D
:10425000AF1ABF0ACECFFC018091B1029091B20299
:1042600086179707A0F06115710529F49091E80071
:104270009E779093E80090E06115710551F49111DB
:1042800008C08091E80082FF34C080E00895BC013E
:10429000F2CF8091AA028823C1F18530C1F18091CB
:1042A000E80083FD30C08091E80082FDEACF809174
:1042B000E80080FFE1CF8091F3002091F200382FD9
:1042C0006115710519F02830310558F091E028305A
:1042D000310509F090E02091E8002E772093E80066
:1042E000CBCF81918093F100615071092F5F3F4FD7
:1042F000E7CF8091AA02882341F0853041F0809178
:10430000E80083FFBECF81E0089582E0089583E056
:104310000895FC018091B1029091B202861797072F
:10432000A0F06115710529F48091E8008E778093E3
:10433000E80090E06115710551F4911108C0809179
:10434000E80082FF35C080E00895BC01F2CF809183
:10435000AA028823C9F18530C9F18091E80083FD64
:1043600031C08091E80082FDEACF8091E80080FFB3
:10437000E1CF8091F3002091F200382F6115710593
:1043800019F02830310558F091E02830310509F056
:1043900090E08091E8008E778093E800CBCF849105
:1043A0008093F1003196615071092F5F3F4FE6CF46
:1043B0008091AA02882341F0853041F08091E80085
:1043C00083FFBDCF81E0089582E0089583E00895E2
:1043D000982F973028F08F708093E90081E008953E
:1043E0009093E900242F762F50E0981731F07091C8
:1043F000EC002091ED005091F00021FD02C09F5F84
:10440000E8CF3091EB003E7F3093EB003091ED0030
:104410003D7F3093ED003091EB0031603093EB0045
:104420007093EC002093ED005093F0002091EE008B
:1044300027FDE5CF80E008958091AB0287FF13C090
:104440008091E80082FF06C08091E8008B7780931E
:10445000E80004C08091AA028111F2CF08958091F2
:10446000AA028823D9F38091E80080FFF8CF8091D9
:10447000E8008E77ECCF2091E4003091E50095E6DE
:10448000A9012091EC00822F817020FF06C080914D
:10449000E80080FF06C080E008952091E80022FD3A
:1044A0001AC08091AA02882389F0853089F0809112
:1044B000EB0085FD0FC02091E4003091E50042172C
:1044C0005307F9F29150E1F684E0089582E00895EF
:1044D00083E0089581E008950E94DB220E94E32298
:1044E000E0EEF0E0808181608083E8EDF0E08081A3
:1044F0008F77808319BCA7EDB0E08C918E7F8C9371
:1045000080818F7E80831092A90208950F931F935C
:10451000CF93DF930E94DB220E94E322C8EDD0E01C
:1045200088818F77888388818068888388818F7D60
:10453000888319BC1092AA021092A6021092A802B7
:104540001092A70200EE10E0F80180818B7F80833B
:1045500088818160888342E060E080E00E94E821F9
:10456000E1EEF0E080818E7F8083E2EEF0E08081FA
:1045700081608083808188608083F80180818E7F64
:104580008083888180618883DF91CF911F910F9113
:104590000895E8EDF0E080818F7E8083E7EDF0E024
:1045A00080818160808384E082BF81E08093A90262
:1045B0000E9486220895E8EDF0E080818E7F80835E
:1045C0001092E20008951092DA001092E10008952E
:1045D0001F920F920FB60F9211242F933F934F9378
:1045E0005F936F937F938F939F93AF93BF93EF935B
:1045F000FF938091E10082FF0BC08091E20082FF77
:1046000007C08091E1008B7F8093E1000E944725E5
:104610008091DA0080FF19C08091D80080FF15C01A
:104620008091DA008E7F8093DA008091D90080FF3C
:1046300096C080E189BD82E189BD09B400FEFDCF4D
:1046400081E08093AA020E94281F8091E10080FFF0
:1046500019C08091E20080FF15C08091E2008E7F3A
:104660008093E2008091E20080618093E20080917B
:10467000D80080628093D80019BC85E08093AA029C
:104680000E943C1F8091E10084FF2BC08091E200DA
:1046900084FF27C080E189BD82E189BD89B5982F5B
:1046A000917080FFFBCF8091D8008F7D8093D800E0
:1046B0008091E1008F7E8093E1008091E2008F7E07
:1046C0008093E2008091E20081608093E20080911B
:1046D000A602882309F449C084E08093AA020E94BC
:1046E000451F8091E10083FF29C08091E20083FF94
:1046F00025C08091E100877F8093E10082E0809374
:10470000AA021092A6028091E1008E7F8093E100C0
:104710008091E2008E7F8093E2008091E2008061D0
:104720008093E20042E060E080E00E94E821809116
:10473000F00088608093F0000E94391FFF91EF9194
:10474000BF91AF919F918F917F916F915F914F91A9
:104750003F912F910F900FBE0F901F90189519BC8D
:104760001092AA020E94361F70CF8091E30087FD4D
:1047700093E09093AA02B3CF1F920F920FB60F92BD
:1047800011242F933F934F935F936F937F938F9356
:104790009F93AF93BF93CF93DF93EF93FF93D0910A
:1047A000E900DF708091EC00C82FC17080FDC0E887
:1047B0001092E9008091F000877F8093F000789458
:1047C0000E9400241092E9008091F000886080939C
:1047D000F000CD2BCF70C093E900FF91EF91DF91F6
:1047E000CF91BF91AF919F918F917F916F915F9189
:1047F0004F913F912F910F900FBE0F901F901895E2
:10480000AAE2B0E0E6E0F4E20C949E258BEA92E0A6
:104810002091F100FC012193CF01F2E0833B9F073F
:10482000B9F70E94651F8091E80083FF1EC1809147
:10483000AB029091AC029A3008F017C1E92FF0E07A
:10484000E758F94D0C948925803899F0823809F0A1
:104850000CC18091AF028F70873008F006C1809341
:10486000E9008091EB0085FB882780F91092E90030
:1048700006C08091A7029091A80291118260909148
:10488000E800977F9093E8008093F1001092F10088
:104890008091E8008E77E5C0882309F4D3C0823088
:1048A00009F0E3C08091AD028111D6C08091AF02C2
:1048B0008F702FEF280F263008F0D7C08093E900C3
:1048C0002091EB0020FFC8C0933031F48091EB00C1
:1048D00080628093EB00C0C09091EB009061909358
:1048E000EB0021E030E001C0220F8A95EAF7209327
:1048F000EA001092EA008091EB008860EACF811113
:10490000B4C01091AD021F778091E3008078812BB5
:104910008093E3008091E800877F8093E8000E9405
:104920001C228091E80080FFFCCF8091E30080682A
:104930008093E30082E0111183E08093AA0295C086
:104940008058823008F091C08091AD029091AE0203
:104950008C3D23E09207A1F583E08A838AE2898374
:104960004FB7F894DE01139620E03EE051E2E32FCA
:10497000F0E050935700E49120FF03C0E295EF7000
:104980003F5FEF708E2F90E0EA30C0F0C7968D93B6
:104990009D932F5F243159F74FBF8091E800877FA7
:1049A0008093E8006AE270E0CE0101960E942B211C
:1049B0008091E8008B778093E80057C0C096E7CFDE
:1049C0006091AF027091B002AE014F5F5F4F0E94E5
:1049D0006620BC01892B09F448C09091E800977FBC
:1049E0009093E80089819A810E948921E1CF8038E3
:1049F000E1F58091E800877F8093E8008091A6022E
:104A00008093F10045CF811130C09091AD0292307A
:104A100060F58091E800877F8093E8009093A6027C
:104A20000E941C228091A602882311F084E005C018
:104A30008091E30087FDFACF81E08093AA020E9473
:104A4000501F13C08091AD02813079F481E0933022
:104A500009F080E08093A8021092E9008091E800BC
:104A6000877F8093E8000E941C228091E80083FFEA
:104A70000AC08091E800877F8093E8008091EB0076
:104A800080628093EB00AA96E3E00C94BA25089527
:104A9000CF938091AA028823A1F0C091E900CF7042
:104AA0009091EC00892F817090FD80E8C82B1092C6
:104AB000E9008091E80083FD0E940024CF70C0933C
:104AC000E900CF9108950E946C221092AA020895E5
:104AD000E8EDF0E08081806180838AE18A95F1F7DA
:104AE00000C08091D9008170089597FB072E16F4BD
:104AF000009407D077FD09D00E94C62507FC05D099
:104B00003EF4909581959F4F0895709561957F4FE4
:104B10000895EE0FFF1F0590F491E02D09942F9258
:104B20003F924F925F926F927F928F929F92AF923D
:104B3000BF92CF92DF92EF92FF920F931F93CF938A
:104B4000DF93CDB7DEB7CA1BDB0B0FB6F894DEBF21
:104B50000FBECDBF09942A88398848885F846E8447
:104B60007D848C849B84AA84B984C884DF80EE8091
:104B7000FD800C811B81AA81B981CE0FD11D0FB69A
:104B8000F894DEBF0FBECDBFED010895AA1BBB1B7D
:104B900051E107C0AA1FBB1FA617B70710F0A61B3D
:104BA000B70B881F991F5A95A9F780959095BC015E
:104BB000CD010895FB01DC0104C08D9101908019A5
:104BC00021F441505040C8F7881B990B0895FB0110
:104BD000DC0102C001900D9241505040D8F7089579
:104BE000F999FECF92BD81BDF89A992780B50895B5
:104BF000A8E1B0E042E050E00C943426DC01A40FC0
:104C0000B51F4150504048F0CB01840F951F2E91A5
:104C10000E940F2641505040D0F70895262FF99951
:104C2000FECF92BD81BDF89A019700B4021639F00B
:104C30001FBA20BD0FB6F894FA9AF99A0FBE0895DC
:104C40000396272F0E940F260E940E26252F0E94D2
:104C50000F26242F0C940F260196272F0E940F2633
:104C60000C940E26DC01CB01FC01F999FECF06C0A5
:104C7000F2BDE1BDF89A319600B40D92415050401A
:104C8000B8F70895F894FFCF120512056205620582
:104C9000C705E30541054105E805590668066806AC
:104CA000931707189B17651769179F176D17A31799
:104CB000AF17791700187D17B3178117B717DF17CC
:104CC0008517BB17E6178B17C117C9177117A717D9
:104CD0007517AB178F17C517D517EF17FE175F1787
:104CE00097170E18D51ADB1AC41ACF1AE11AE71A49
:104CF000ED1A24244C2435254C2435257F24A0246A
:064D00003525F724032510
:104D0600160201000000010000000000000004017E
:104D16000000000405000000000000280850011EE5
:104D26000A1401DF1E141F0D1F061F01E200E90011
:104D3600EA00B500B600B700CD008301CC008A01B9
:104D4600920194012102230224022502260227024F
:104D56002A02B300B4006F0070009F01CB019F02CE
:104D6600A002818283E200E900EA00B500B600B73E
:104D760000CD008301CC008A019201940121022317
:104D86000224022502260227022A02B300B4006F7B
:104D96000070009F01CB019F02A002818283F493E1
:0A4DA600929194323634353B02003E
:00000001FF
